:020000040800F2
:10000000B80A002089010008573900087D3000082F
:1000100055390008A1040008953E000800000000C2
:100020000000000000000000000000005B39000834
:100030001305000800000000593900085D39000868
:10004000A3010008A3010008A3010008A301000800
:10005000A3010008A3010008A3010008A3010008F0
:10006000A3010008A3010008A3010008DD040008A3
:10007000A3010008A3010008A3010008A3010008D0
:10008000A3010008A3010008A3010008A3010008C0
:10009000213D0008A3010008A3010008A3010008F6
:1000A000A3010008DD390008A3010008A30100082E
:1000B000E9390008A3010008A3010008A301000812
:1000C000A3010008A3010008A3010008A301000880
:1000D000A3010008153D0008A3010008A3010008C2
:1000E000A3010008A3010008A301000800F002F822
:1000F00000F03AF80AA090E8000C82448344AAF188
:100100000107DA4501D100F02FF8AFF2090EBAE885
:100110000F0013F0010F18BFFB1A43F0010318473B
:10012000207B0000407B0000103A24BF78C878C1D3
:10013000FAD8520724BF30C830C144BF04680C60ED
:10014000704700000023002400250026103A28BF35
:1001500078C1FBD8520728BF30C148BF0B60704739
:100160001FB51FBD10B510BD00F0C2F81146FFF756
:10017000F7FF04F09FFE00F0E0F803B4FFF7F2FF92
:1001800003BC00F0E3F80000094880470948004735
:10019000FEE7FEE7FEE7FEE7FEE7FEE7FEE7FEE737
:1001A000FEE7FEE704480549054A064B7047000094
:1001B000D9390008ED000008B8040020B80A002072
:1001C000B8060020B806002040EA010310B59B07DE
:1001D0000FD1042A0DD310C808C9121F9C42F8D0B1
:1001E00020BA19BA884201D9012010BD4FF0FF3062
:1001F00010BD1AB1D30703D0521C07E0002010BD78
:1002000010F8013B11F8014B1B1B07D110F8013B03
:1002100011F8014B1B1B01D1921EF1D1184610BDE4
:1002200002F0FF0343EA032242EA024200F037B839
:100230004FF0000200B5134694469646203922BF7F
:10024000A0E80C50A0E80C50B1F12001BFF4F7AFCA
:10025000090728BFA0E80C5048BF0CC05DF804EBAC
:10026000890028BF40F8042B08BF704748BF20F81A
:10027000022B11F0804F18BF00F8012B7047704718
:100280007047704710B500F02BF8006810BD10B52E
:10029000044600F025F8046010BD4FF00002042968
:1002A000C0F0128010F0030C3FF4C4AFCCF1040C8A
:1002B000BCF1020F18BF00F8012BA8BF20F8022BD9
:1002C000A1EB0C01FFF7B6BF5FEAC17C24BF00F8C9
:1002D000012B00F8012B48BF00F8012B70470000EC
:1002E0000048704754040020004870475404002020
:1002F0007546FFF7F9FFAE4605006946534620F004
:100300000700854618B020B5FFF74CFFBDE8204038
:100310004FF000064FF000074FF000084FF0000BC1
:1003200021F00701AC46ACE8C009ACE8C009ACE874
:10033000C009ACE8C0098D46704710B50446AFF35C
:1003400000802046BDE81040FFF717BF0149182084
:10035000ABBEFEE7260002007047000070B5044601
:1003600000688168C943C90717D1816821F001017C
:10037000816001F04FFB05460AE000BF01F04AFB37
:10038000401B022804D920688068C043C00706D0FB
:1003900020688068C043C007F0D0002070BDA06A0C
:1003A00040F01000A062E06A40F00100E06201202D
:1003B00070BD10B50146406A826A12F0500F05D038
:1003C000006A026BBDE8104008461047816A41F49C
:1003D0000071816201688968C1F3424107290CD12B
:1003E000017B51B9816A21F480718162816AC904FB
:1003F00003D4816A41F00101816200F029FA10BD45
:1004000010B5406A816A41F040018162C16A41F0E1
:100410000401C16200F01EFA10BD10B5406A00F080
:1004200018FA10BDF8B500260446009600688168E9
:10043000C943C9072DD0816841F001018160164888
:1004400016490068B0FBF1F000E0401E0090002863
:10045000FBD101F0DFFA054616E000BF01F0DAFA41
:10046000401B022810D920688068C043C0070BD009
:10047000A06A40F01000A062E06A40F00100E06273
:1004800084F824600120F8BD20688068C043C0075C
:10049000E4D10020F8BD0000BC00002040420F0065
:1004A000FEE700001CB500218DF80000094840F26D
:1004B000111201AB81600260C1600121016101463E
:1004C0006A46054800F058FC002801D072B6FEE7E5
:1004D0001CBD0000A801002004030020014801F019
:1004E00081B80000C002002030B590F840500124CF
:1004F000AC40C56B6C60046863604368102B036894
:1005000003D099600068C26030BD9A600068C16025
:1005100030BD704772B6FEE710B5164800F034FBE8
:100520000121144800F092FA124800F094F9800575
:100530001FD5104800F091F980B205F04EFE0E4A2A
:100540000E4B05F05DFE00220D4B05F059FE05F047
:1005500017FE80B205F041FE022206F05CFC00228C
:10056000084B05F0BDFB05F00BFE0749020A0A70B7
:10057000487010BD900200207B14AE47E17A4A3FDC
:1005800000408F4000006940480000202DE9F05FE6
:10059000DFF8CCA00024AAF1180BAAF12C093048EE
:1005A000304D08301021025D284601F02DFA2C480C
:1005B00020211430025D284601F026FA2848402107
:1005C0002030025D284601F01FFA254880212C309A
:1005D000025D284601F018FA322004F04FF8042298
:1005E0001F49214800F030FB322004F047F81F4833
:1005F000002500EBC408E7001BF805603AF8150079
:1006000006F082FA6FF00B0106F033FC06F0D2F828
:10061000174A184B05F0F4FD0022174B05F0F0FDCA
:1006200005F0AEFD81B242F21070B1FBF0F200FBBA
:1006300012100E49A9F8120007EB4602603128F8A3
:100640001600030A8B5411446D1CEDB24870042D42
:10065000D2D3641CE4B20C2CA1D3BDE8F09F0000FF
:10066000640000200008014060020020E800002033
:100670007B14AE47E17A0A4000408F40F8B5002570
:100680000446009590F82400012808D0012084F841
:1006900024002046FFF762FE060002D053E002204D
:1006A000F8BDA06A20F4885040F00200A062022049
:1006B00001F002FD26490968B1FBF0F0400000E0BE
:1006C000401E00900028FBD12046FFF7ABFE2068BB
:1006D000816841F00801816001F09CF9074608E05B
:1006E00001F098F9C01B0A2803D920688068000728
:1006F00015D4206880680007F2D42068816841F032
:100700000401816001F086F9074612E001F082F9E8
:10071000C01B0A280DD920688068400709D5A06A47
:1007200020F0020040F01000A06284F82450012064
:10073000F8BD206880684007E8D4A06A20F0020075
:1007400040F00100A06284F824503046F8BD00005B
:10075000BC000020F8B50024009490F82420254621
:10076000012A12D0012280F824204A681F23072A78
:100770000DD20668776B521E02EB820293409F43B4
:100780000B6893401F43776319E00220F8BD0668A9
:100790000D2A0AD2376BD21F02EB820293409F438D
:1007A0000B6893401F43376309E0F76A0D3A02EB89
:1007B000820293409F430B6893401F43F7620A688D
:1007C000072306680A2A0AD3F7680A3A02EB4202AC
:1007D00093409F438B6893401F43F76008E037695D
:1007E00002EB420293409F438B6893401F43376163
:1007F0000A68102A01D0112A20D1124B02689A42AD
:1008000017D193681B0219D4936843F400039360D3
:100810000968102912D10C490C4A0968B1FBF2F1A0
:1008200001EB8101490000E0491E00910029FBD144
:1008300004E0816A41F020018162012480F82450A3
:100840002046F8BD00240140BC00002040420F00BB
:10085000704770477047806A70470068C06C704787
:100860002DE9F0414FF0000704003D467ED0A06A1C
:10087000002628B9E66284F82460204600F07EF85D
:100880002046FFF76BFDA16AC90600D420B1A06A1B
:1008900040F01000A06269E0A16A21F4885141F0A3
:1008A0000201A1626268E169237B0A4347EA4301CE
:1008B0000A43A1684FF48077B94209D0012907D0D3
:1008C0005FF0000194F814C0BCF1010F02D00AE0FF
:1008D0003946F7E7F3B1A36A43F02003A362E36A62
:1008E00043F00103E3622368D3F804C02CF4694C9D
:1008F0004CEA010CC3F804C021688B68DFF870C0B3
:1009000003EA0C0313438B60A168B9420BD00129A1
:1009100009D00CE0DFF85CC0A3690CEB43330B4358
:1009200043F40061DFE7218A0D05A5F580152168F4
:10093000CB6A23F470032B43CB62216889680E4B8A
:100940001940914208D1E662A16A21F0020141F00A
:100950000101A162BDE8F081A06A20F0020040F030
:100960001000A062E06A40F00100E0620120F1E7BF
:10097000FDF7E1FF00E0FFFFFE0E1FFF70B586B040
:10098000002600960196029603960546284B0268BB
:10099000284903209A422FD18A6942F400728A6161
:1009A0008A6902F4007204928A6942F004028A6140
:1009B000896901F0040104910F21CDE90010694615
:1009C0001D4800F031FF1E4C1C48C4E90006802081
:1009D000C4E9026040002061800060612020A061C5
:1009E0000002E061204600F0A7FE08B1FFF792FD8B
:1009F0002C62656206B070BD124B9A42FAD18A69C8
:100A000042F480628A618A6902F4806204928A698F
:100A100042F008028A61896901F00801049101210C
:100A2000CDE900106946084800F0FEFEE2E700004C
:100A3000002401400010024000080140080002406C
:100A4000C002002000280140000C01402DE9F843BD
:100A500000270D460446009700F0DCFF8046206822
:100A60008168C90508D5A06A40F02000A06284F81A
:100A700024700120BDE8F8834168C90503D4C06A29
:100A800010F4700F2AD0022001F016FB3B490968D0
:100A9000B1FBF0F62068036939490B424FEA610166
:100AA0004FEAA1121FD1C3684FEA611C13EA0C0F71
:100AB00019D103690B4225D1C068104222D11420FC
:100AC00023E0681C0AD02DB100F0A4FFA0EB0800C1
:100AD000A84203D920680068800725D520680068EF
:100AE0008007EED52DE003690B4202D1C1681142A7
:100AF00006D0026923490A4206D1C068084203D1E0
:100B0000542002E0292000E0FC204643009816E033
:100B1000681C11D02DB100F07DFFA0EB0800A842A9
:100B20000AD90098B04207D2A06A40F00400A0623F
:100B300084F8247003209DE70098401C0090B04288
:100B4000E6D321686FF012000860A06A40F40070DC
:100B5000A06220688068C0F3424007280CD1207B47
:100B600050B9A06A20F48070A062A06AC00403D4C7
:100B7000A06A40F00100A06200207BE7BC000020DA
:100B8000244992244992240070B5044690F8240028
:100B900001280DD0012084F824002046FFF742FCF4
:100BA00002004FF0000005D084F82400104670BD0C
:100BB000022070BDA16A40F20123994341F4807183
:100BC000A1621F4D23681F49AB4218D10E6816F46D
:100BD000702F14D0A66A46F48016A6620E687605B9
:100BE00005D5A66A26F4005646F48056A662A66A83
:100BF000F6040AD5E66A26F00606E66206E0A66A6C
:100C000026F48016A6625E68E9E7E06284F82400B4
:100C10006FF00200186020688368C3F34243072B1B
:100C200005D1A84208D1096811F4702F04D0816859
:100C300041F480118160B9E7816841F4A001F9E7CE
:100C400000280140042401402DE9F047894604466C
:100C50003B4900683B4F0E1D9046884201D0B84288
:100C600007D1306810F4702F03D001252846BDE865
:100C7000F08794F8240001280CD0012084F8240087
:100C80002046FFF7CFFB05004FF0000004D084F8AA
:100C90002400EBE70220EAE7A16A40F601629143F3
:100CA00041F48071A1622168B94218D1326812F40E
:100CB000702F14D0A16A41F48011A16231684905F6
:100CC00005D5A16A21F4005141F48051A162A16AC5
:100CD000C9040AD5E16A21F00601E16206E0A26AD0
:100CE00022F48012A2624968E9E7E06284F82400F5
:100CF000216A15488862216A1448C862216A14482A
:100D0000086321686FF0020008602068816841F480
:100D100080718160216843464A464C31206A00F068
:100D200039FD20688168C1F342410729816803D0F9
:100D300041F48011816099E741F4A001FAE70000D5
:100D40000024014000280140B30300081B040008F0
:100D50000104000890F82020012A07D0022A05D0BB
:100D6000416A41F480214162012070470068426974
:100D70000A43426100207047F0B590F820500468A3
:100D8000A468012D05D0022D03D0416A41F48021D1
:100D90005DE014F0406F01D1E50055D5C4F3016466
:100DA000022C03D9416A41F4000150E00125A5401D
:100DB0001D608D684FF4C0739DB1CE6835434E6899
:100DC00045EAC605066803EB0417F5514FF4C275F2
:100DD000076805EB04150E697E51097D012905D0D0
:100DE00009E00E88CD6845EA4655EBE701684E59A3
:100DF00046F480764E511179D579567941EA0561EC
:100E000095792D0445EA062529434FF4C6760568F1
:100E100006EB0416A9511178D57841EA0561957859
:100E200052782D0445EA022211434FF4C47502683A
:100E300005EB04155151006803EB0411425842F0D0
:100E4000010242500020F0BD416A41F400114162AC
:100E50000120F0BD10B590F820300268012B07D0BA
:100E6000022B05D0416A41F480214162012010BD6E
:100E7000D2F8000240F00100C2F80002087D00F044
:100E80001F0301209840D2F81C328343C2F81C3261
:100E9000CB69B3B9D2F80C328343C2F80C328C89D7
:100EA0004B6864F31F434C6902EBC404C4F840323E
:100EB0000C890B6864F31F434C6902EBC404C4F84B
:100EC0004432CB69012B16D1D2F80C320343C2F85D
:100ED0000C320C884B6864F31F434C6902EBC4046A
:100EE000C4F840320C89CB6864F31F434C6902EBB1
:100EF000C404C4F844328B69002BD2F804320FD0FA
:100F000053EA0003C2F804320B69002BD2F8143202
:100F100008D00343C2F81432096A012904D008E05A
:100F20008343EFE78343F5E7D2F81C120143C2F88D
:100F30001C12D2F8000220F00100C2F800020020CA
:100F400010BD704730B590F82040012C05D0022C20
:100F500003D0416A41F480215DE00468002955D046
:100F60002469A40754D04FF4D874056804EB011425
:100F70002D5915F00405956005682D594ED0ED08E2
:100F8000556005682C5904F00204D4604FF4DA74FB
:100F9000056804EB01142D5905F00F05156105686E
:100FA0002D59C5F30725956105682C59240C54610A
:100FB0004FF4DC72046802EB0112A4581C70046840
:100FC000A458240A5C700468A458240C9C7004681B
:100FD000A258120EDA704FF4DE72046802EB0112AE
:100FE000A4581C710468A458240A5C710468A458AD
:100FF000240C9C710468A258120EDA71006881B149
:10100000016941F020010161002030BDE468A8E7DA
:10101000416A41F400114162012030BD6D0D15603F
:10102000AFE7C16841F02001C160EDE72DE9F05F55
:101030000546006800244669D0F804908768D0F817
:101040000CB0D0F810A0D0F81880F10748D0F907FC
:1010500014D001218160B80703D5284600F04DFA6D
:101060000CE0780702D54FF4006407E0380702D59A
:101070004FF4805402E0284600F03EFAF80516D5F9
:1010800029684FF480708860B80503D5284600F0C1
:1010900036FA0CE0780502D544F4005407E0380530
:1010A00002D544F4804402E0284600F027FAF80311
:1010B00016D529684FF480308860B80303D52846D8
:1010C00000F01FFA0CE0780302D544F4004407E076
:1010D000380302D544F4803402E0284600F010FAC8
:1010E000300707D55FEACB6004D52968102044F4A7
:1010F0000074C86070074FF0080707D55FEA0B70EF
:1011000004D52868C760284600F05AF9B00706D50C
:101110002868C068800702D0284600F053F970069E
:1011200007D55FEACA6004D52968102044F48064BA
:101130000861B00607D55FEA0A7004D52868076120
:10114000284600F0A9F9F00606D52868006980074E
:1011500002D0284600F0A1F9B00308D55FEAC960C3
:1011600005D5296810204860284600F097F9F0035B
:1011700007D55FEA097004D528684760284600F063
:10118000C1F9300446D55FEA497040D5F00504D571
:101190005FEAC87001D044F00104B00504D55FEAED
:1011A000887001D544F00204700504D55FEA4870E8
:1011B00001D544F00404300529D518F0700F26D06D
:1011C00008F07000402815D006DC102809D020282F
:1011D0000AD0302816D10AE050280ED0602811D14C
:1011E0000EE044F008040DE044F010040AE044F07E
:1011F000200407E044F0400404E044F0800401E0EF
:1012000044F480742868816921F070018161296843
:1012100004204860002C05D0686A20436862284694
:10122000FFF78FFEBDE8F09F70B5040003D094F87F
:10123000200010B104E0012070BD204600F082F8CB
:101240002068016841F00101016000F0E3FB054600
:10125000052604E000F0DEFB401B0A2811D82068B8
:101260004068C007F6D02068016821F002010160E3
:1012700000F0D0FB05460BE000F0CCFB401B0A2839
:1012800006D9606A40F40030606284F82060D2E7DA
:10129000206840688007EFD4207E0128206801681C
:1012A0003DD021F080010160607E01282068016846
:1012B00038D021F040010160A07E0128206801683B
:1012C00033D021F020010160E07E01282068016810
:1012D0002ED041F010010160207F012820680168B4
:1012E00029D021F008010160607F01282068016891
:1012F00024D021F004010160D4E902010843D4E9BB
:101300000412114308436168491E08432168C861FB
:1013100000206062012084F82000002070BD41F0B0
:101320008001C0E741F04001C5E741F02001CAE774
:1013300021F01001CFE741F00801D4E741F00401AA
:10134000D9E7000010B586B000210091019102910B
:1013500003910068174988422AD11748C16941F0B2
:101360000071C161C16901F000710491816941F0AE
:10137000040181618069114C00F0040004904FF475
:10138000006000906946204600F04EFAA0140090DC
:1013900002200190032003906946204600F044FAA1
:1013A00000221146142000F055FE142000F044FEE7
:1013B00006B010BD0064004000100240000801406B
:1013C000704700002DE9FC416B46314A0021FFF7D0
:1013D000B9FD00282CD12F4C012504F16401E079DE
:1013E000B0B12B482A4B00260068F03BA0F5807076
:1013F0006A4621382BD001283CD0022818D1002081
:101400001F18115C401CC0B2B9740628F8D33CE028
:101410009DF80000A1280AD0A2280BD0A3280BD049
:10142000A42805D12572E07840B1C8780BE0E570BA
:10143000BDE8FC812571FBE76571F9E7207908B10A
:10144000087900E04879FFF72DF8E571F0E7175CBF
:1014500003EB000C401CC0B28CF806700628F6D3D3
:10146000207908B1087902E0607970B14879FFF716
:1014700019F8DDE7002003EB000C175C401CC0B23C
:101480008CF80C700628F6D3EEE76572E671CFE7AC
:10149000C0010020380000207047704770470000EE
:1014A00070B5044690F82000012804D0606A40F42A
:1014B0000020606218E0022084F8200020680168A3
:1014C00021F00101016000F0A5FA05460EE000BF21
:1014D00000F0A0FA401B0A2808D9606A40F40030E6
:1014E0006062052084F82000012070BD20684068FB
:1014F000C007EDD1606270BD70477047704770479C
:1015000070477047704710B590F8211000220229EB
:1015100005D00421816380F82020012010BD0168DE
:101520000B6823F00E030B6001680B6823F00103C6
:101530000B6090F84030C46B012101FA03F3636043
:1015400080F8211080F82020104610BD10B590F8CA
:1015500021100024022903D00421816301243DE0ED
:1015600001680A6822F00E020A6001680A6822F027
:1015700001020A601A4A0168914201D1012121E069
:10158000174A1432914201D110211BE0144A28322B
:10159000914201D1891515E0114A3C32914201D1A5
:1015A00089140FE00E4A5032914202D14FF480313B
:1015B00008E00B4A6432914202D14FF4801101E0FD
:1015C0004FF08071064A083A5160012180F82110DD
:1015D000002180F82010416B01B18847204610BDE2
:1015E000080002402DE9F05FC16B0C6801680B68D0
:1015F000D0F840C0042202FA0CF2494DDFF824A1D1
:10160000494E4A4FDFF828B1DFF828E122422CD0BA
:101610005A072AD50A68920603D40A6822F00402FF
:101620000A600168A94201D1042219E0514501D1A3
:10163000402215E0B14202D14FF4806210E0B9427D
:1016400002D14FF480420BE0594502D14FF4802281
:1016500006E0714502D14FF4800201E04FF0806254
:101660002F4908394A60C16A3BE04FF0020808FA86
:101670000CF818EA040F4FF000094FF0010235D0C2
:101680005FEA837832D50B689B0605D40B6823F09C
:101690000A030B6080F821200168A94201D10222CF
:1016A00019E0514501D1202215E0B14202D14FF499
:1016B000007210E0B94202D14FF400520BE05945DC
:1016C00002D14FF4003206E0714502D14FF400120E
:1016D00001E04FF00072124908394A6080F820900A
:1016E000816A00291AD0BDE8F05F0847082505FA8D
:1016F0000CF5254212D01B0710D50B6823F00E0302
:101700000B6090F84010C36B02FA01F159608263DC
:1017100080F8212080F82090016BE2E7BDE8F09F7F
:10172000080002401C000240300002404400024019
:10173000580002406C00024030B528B308C8134975
:1017400014221944B1FBF2F18900C163104981638D
:10175000022141771A6843F6F0718A43D0E90014F8
:101760002143D0E902452C432143046921434469C4
:1017700021438469214311431960002141630122FF
:1017800042770177084630BD012030BDF8FFFDBF2C
:101790000000024070B5044690F8200000250128A2
:1017A0000CD0012084F8200094F821600020012E44
:1017B00006D084F820000225284670BD022070BDA6
:1017C000022684F82160A0632068066826F00106DE
:1017D00006602046FEF788FEE06A0028206801685F
:1017E00002D041F00E0106E021F004010160206802
:1017F000016841F00A0101602068016841F00101BF
:101800000160D9E770B5044600F004F90546601C94
:1018100002D004480078044400F0FCF8401BA042C9
:10182000FAD370BDB00000202DE9F84FDFF8B89171
:10183000002409F1040A0AF1040B23460F270BF1D7
:10184000040EC9E00125A5402A40AA427DD1674E79
:10185000D1F804C0ACEB0608B44532D014DCBCF1BE
:10186000030F3AD009DCBCF1000F2AD0BCF1010F04
:101870001CD0BCF1020F31D11DE0BCF1110F17D00B
:10188000BCF1120F2AD119E0B8F5881F19D006DC77
:10189000B8F5803F15D0B8F5801F1FD111E0B8F51D
:1018A000001F0ED0B8F5041F18D10AE0CB6815E070
:1018B000CB681B1D12E0CB6808330FE0CB680C33FC
:1018C0000CE08B682BB1012B4FF0080303D045616E
:1018D00004E0042302E0056100E00023FF2A01D8B0
:1018E000064601E000F104064FEA840501D9A5F19E
:1018F0002005D6F8008007FA05FC28EA0C0803FA50
:1019000005F548EA0508C6F800804D68ED0062D587
:10191000374DAE6946F00106AE61AD6924F00306AD
:1019200005F001050095334D06EB050CDCF8085079
:10193000A607360F07FA06F825EA0805DFF8B8808B
:10194000404503D14FF0000817E044E0DFF8AC80D9
:10195000404502D14FF001080FE0DFF8A480404578
:1019600002D14FF0020808E0DFF89880404502D12C
:101970004FF0030801E04FF0040808FA06F848EABF
:101980000508CCF808804D68D9F80060ED034D4695
:1019900001D5164300E096432E604D68DAF80060EA
:1019A000AD03554601D5164300E096432E604D68C1
:1019B000DBF80060ED025D4601D5164300E096437A
:1019C0002E604D68DEF80060AD02754601D5164305
:1019D00000E096432E60641C0D682A46E5407FF4C3
:1019E00031AFBDE8F88F0000000401400000111085
:1019F000001002400000014000080140000C0140BE
:101A000000100140001401400AB10161704709044F
:101A1000FBE700000148806870470000B00000202C
:101A200070B5040025D094F83D00002520B984F855
:101A30003C50204600F078FA242084F83D002068CD
:101A4000016821F0010101602068016841F4004152
:101A500001602068016821F40041016000F0A2FCEF
:101A60004D4A6168914201D84C4900E04C49884296
:101A700001D2012070BD4B492368B0FBF1F15E68D3
:101A800026F03F060E435E606368934206D94FF42A
:101A9000967359434FF47A73B1FBF3F12368491CF1
:101AA0001E6A26F03F06314319626168914210D8E0
:101AB0004900401EB0FBF1F2521CC2F30B02042A93
:101AC00001D2042022E0B0FBF1F0401CC0F30B0077
:101AD0001CE0A268F2B301EBC10303EB0116431E45
:101AE000B3FBF6F35B1C43F480431B0549D092B370
:101AF00001EBC10202EB0111401EB0FBF1F0401CF2
:101B0000C0F30B0040F4804040F400402168CA69F3
:101B10004CF6FF739A431043C861D4E907100143A0
:101B20002068026822F0C00211430160D4E9030179
:101B300001432068826848F2FF339A431143816071
:101B4000D4E9050108432168CA6822F0FF02104366
:101B5000C86001E00EE016E02068016841F0010174
:101B600001602564202084F83D00256384F83E5000
:101B7000002070BD01EB4106431EB3FBF6F35B1C76
:101B8000B3E70120C2E701EB4101401EB0FBF1F0D9
:101B9000401CC0F30B00B7E7A086010080841E0044
:101BA00000093D0040420F002DE9FF4F83B00025A2
:101BB000DDE910799A4693460446DDF848800095A1
:101BC000FFF728FF064694F83D0020287CD1192312
:101BD000012285492046009601F060FB0028F5D1DE
:101BE00094F83C0001286FD0012084F83C00206864
:101BF0000168C90703D1016841F001010160206853
:101C0000016821F400610160222084F83D00402039
:101C100084F83E0025646762A4F82A90608D2085D0
:101C20007248E062CDE9008653465A462046049940
:101C300001F03CFA00287DD1208DDFF8B4912027F7
:101C400068B1012814D00228206801681ED041F430
:101C5000806101602068416980690090B6E0206879
:101C6000416981690091016841F400710160ADE052
:101C70002068016821F48061016072B620684169C2
:101C800081690091016841F400710AE041F400614A
:101C9000016072B62068416981690091016821F490
:101CA0008061016062B691E0032868D801280CD0F9
:101CB000022843464FF000024946204600960FD0C6
:101CC00001F0ECFAB0BB10E08BE032464146204612
:101CD00001F063FB70BB20680069616A08706CE00A
:101CE00001F0DCFA30BB72B634E02068016821F400
:101CF0008061016072B620680069616A0870606A7C
:101D0000401C6062208D401E2085608D401E6085D5
:101D1000384846F2A8110068B0FBF1F0C0EBC000F3
:101D200000EB80000090401E009008D020684069C1
:101D3000C04300E029E040070CD50098F3E744F8E1
:101D4000305F6773A573206940F02000206162B6A0
:101D500025731AE02068016841F400710160206871
:101D60000069616A0870606A401C6062218D491ECA
:101D70002185618D491E618562B621681BE032466E
:101D80004146204601F009FB18B1012007B0BDE82B
:101D9000F08F20680069616A0870606A401C6062A8
:101DA000218D491E2185618D491E618521684A6901
:101DB000D24352070AD409690170606A401C60620C
:101DC000208D401E2085608D401E6085208D00285E
:101DD0007FF46AAF84F83D7084F83E5084F83C503C
:101DE000D4E70220D2E70000020010000000FFFF4D
:101DF00004000100BC0000202DE9FF4F83B09A468B
:101E0000DDE9119793460446DDF84080FFF702FEB6
:101E1000054694F83D0020287FD11923012240492E
:101E20002046009501F03AFA002876D194F83C005B
:101E3000012872D0012084F83C0020680168C9079D
:101E400003D1016841F0010101602068016821F4BB
:101E500000610160212084F83D00402084F83E00AC
:101E600000262664C4F82480A4F82A90608D20857A
:101E70002C48E062CDE9007553465A462046049945
:101E800001F092F970B930E02A463946204601F057
:101E9000B7FA58B1206C042804D12068016841F4D5
:101EA00000710160012007B0BDE8F08F606A216811
:101EB00000780861606A401C6062218D491E89B209
:101EC0002185628D521E628522685369DB435B0760
:101ED0000BD469B100781061606A401C6062208D8B
:101EE000401E2085608D401E6085208D0028CBD14E
:101EF0002A463946204601F0ABF90028CAD154F8E9
:101F00003D0B016841F400710160202004F81E09B6
:101F1000E67766770020C6E7FFE70220C3E7000008
:101F2000020010000000FFFF10B586B000210091F4
:101F30000191029103910068104988421BD1104C15
:101F4000A06940F00800A061A069694600F008009F
:101F500004904FF440600090122001900320039001
:101F60000848FFF761FCE06940F48000E061E06947
:101F700000F48000049006B010BD0000005800403E
:101F800000100240000C01400248816802781144B0
:101F900081607047B0000020074810B5016841F02B
:101FA00010010160032000F075F80F2000F006F822
:101FB00000F024F8002010BD0020024070B50D4D47
:101FC00004464FF47A712878B1FBF0F00A490968A9
:101FD000B1FBF0F000F0CCFB48B9102C07D2002286
:101FE0002146501E00F036F800206C6070BD0120C4
:101FF00070BD0000B0000020BC0000200C4808B5F7
:10200000816941F001018161816901F00101009163
:10201000C16941F08051C161C06900F080500090F9
:102020000448416821F0E06141F00071416008BD61
:102030000010024000000140002809DB00F01F02F0
:10204000012191404009800000F1E020C0F800111A
:1020500070470000F0B40E4B1B680C46C3F302231C
:10206000C3F10705042D00D90425191D072901D244
:10207000002300E0DB1E012606FA05F1491E21407F
:1020800099409E40761E16403143F0BC01F017BFC8
:102090000CED00E0064900F0070208684FF6FF0368
:1020A000184040EA0220034A1043086070470000CD
:1020B0000CED00E00000FA0510B529A401461DCC86
:1020C00086B08DE81D002AA02A4C006804900020EC
:1020D000012923D002293AD010291DD16168226834
:1020E000D20119D5C1F38342C9031DF8020009D5F5
:1020F000616804AAC1F34041515C1F4AB2FBF1F18F
:10210000484301E01D4948436168490204D4400046
:102110005FF00301B0FBF1F006B010BD226AC2F31C
:102120000121012903D1920701D5C803F4E702294F
:1021300005D1626A920702D549F64040ECE70329CF
:10214000EAD121688903E7D54FF22440E4E700F0A3
:1021500039F96168C1F38131491C4900DAE70000AF
:1021600002030405060708090A0B0C0D0E0F1010D8
:10217000010200000010024000127A0000093D0038
:102180002DE9F84305460078354CC00754D0E06986
:102190000026C00008D4E06940F08050E061E069AA
:1021A000012600F0805000902E480168C90512D425
:1021B0000168804641F480710160FFF72BFC0746FF
:1021C00005E000BFFFF726FCC01B642823D8D8F821
:1021D0000000C005F6D5206A10F4407021D0A9880F
:1021E00001F4407181421CD0206A1F49012220F471
:1021F00040700A6000220A602062C00711D0FFF719
:1022000009FC074641F2883808E000BFFFF702FCEE
:10221000C11B414502D90320BDE8F883206A80072D
:10222000F4D5206A696820F44070084320621EB12A
:10223000E06920F08050E0612878800705D560686B
:10224000A96820F44040084360602878C00605D59E
:102250006068E96820F48000084360600020DBE7E4
:102260000010024000700040400442422DE9F04757
:102270000F46050061D0434E306800F00700B842B9
:1022800009D2306820F0070038433060306800F031
:102290000700B84251D128683B4C810712D540074E
:1022A00003D5606840F4E06060602878000703D5DB
:1022B000606840F4605060606068A96820F0F000D9
:1022C000084360602878C00728D06868012810D0CB
:1022D0002168022810D0890700292EDA616821F0D0
:1022E000030101436160FFF795FB804641F28839A5
:1022F0000DE021688903EFE78901EDE7FFF78AFB2D
:10230000A0EB0801494502D90320BDE8F0876068C9
:10231000696800F00C00B0EB810FEFD1306800F07D
:102320000700B8420BD9306820F00700384330600E
:10233000306800F00700B84201D00120E5E72878B6
:10234000400705D56068E96820F4E06008436060F4
:102350002878000706D56068296920F4605040EAB3
:10236000C100606000F03EF86168084AC1F30311E3
:10237000515CC8400649086006480068FFF71EFE29
:102380000020C2E70020024000100240367B000817
:10239000BC000020B4000020014800687047000025
:1023A000BC0000200448054900684968044AC1F39C
:1023B0000221515CC8407047BC0000200010024060
:1023C000467B00080448054900684968044AC1F38F
:1023D000C221515CC8407047BC0000200010024080
:1023E000467B000812A185B00FC98DE80F0014A02C
:1023F000144A006804905168134801F00C03042B40
:1024000010D0082B0ED1C1F38343C9031DF803007C
:102410000AD5516804AAC1F34041515C0A4A5043AD
:10242000B0FBF1F005B0704708494843FAE70000F7
:1024300002030405060708090A0B0C0D0E0F101005
:10244000010200000010024000127A0000093D0065
:102450002DE9F84F040070D02078C04DC00749D056
:102460006868C0F38100012807D06868C0F3810064
:10247000022809D16868C00306D52868800339D5C9
:1024800060680028E7D035E06068B0F5803F0BD089
:1024900010B1B0F5A02F11D0286820F4803028604A
:1024A000286820F4802002E0286840F4803028600A
:1024B000606890B1FFF7AEFA06460AE0286840F47B
:1024C00080202860F0E700BFFFF7A4FA801B642893
:1024D00073D828688003F7D50CE0FFF79BFA06460F
:1024E00005E000BFFFF796FA801B6428F0D8286843
:1024F0008003F7D420789A4E80074FF001094FF0FF
:10250000000839D5686810F00C0F07D06868C0F370
:102510008100022809D16868C00306D428688007B2
:1025200014D52069012808D110E02069B0B1C6F89F
:102530000090FFF76FFA074605E00AE1FFF76AFA35
:10254000C01B0228C4D828688007F7D528686169AD
:1025500020F0F80040EAC10028600DE0C6F80080D5
:10256000FFF758FA074604E0FFF754FAC01B0228A9
:1025700023D828688007F7D4207800072CD579481D
:10258000A169D9B1C0F80090FFF744FA074604E00A
:10259000FFF740FAC01B02280FD8686A8007F7D5FA
:1025A00071484FF4FA510068B0FBF1F0009000BFA1
:1025B0000098411E0091FAD20EE080E0C0F8008041
:1025C000FFF728FA074604E0FFF724FAC01B0228A9
:1025D00075D8686A8007F7D42078400760D5E86925
:1025E0000027C00008D4E86940F08050E861E8693D
:1025F000012700F0805000905C480168C90513D4A1
:102600000168834641F480710160FFF703FA824656
:1026100006E000BFFFF7FEF9A0EB0A0064284ED8E1
:10262000DBF80000C005F5D5E06801280AD008B144
:10263000052813D0286A20F001002862286A20F0BB
:10264000040002E0286A40F001002862E06841F2DC
:10265000883B98B1FFF7DEF982460BE0286A40F02C
:1026600004002862EEE700BFFFF7D4F9A0EB0A01EF
:1026700059455AD8286A8007F6D50CE0FFF7CAF901
:10268000824605E0FFF7C6F9A0EB0A0159454CD890
:10269000286A8007F6D41FB1E86920F08050E8610D
:1026A000E06988B36968C1F38101022944D0022836
:1026B000C6F8608004D0FFF7ADF9044638E034E096
:1026C000FFF7A8F9074604E0FFF7A4F9C01B0228AA
:1026D0002BD828688001F7D4206AB0F5803F05D157
:1026E0006868A16820F4003008436860D4E90801F4
:1026F0000843696821F4741108436860C6F8609063
:10270000FFF788F9044606E025E000BFFFF782F9ED
:10271000001B022809D828688001F7D51BE000BFFC
:10272000FFF778F9001B022802D90320BDE8F88FD3
:1027300028688001F4D40EE00128F7D06868226A86
:1027400000F48031914204D1616A00F47010884233
:1027500001D00120EAE70020E8E700000010024075
:102760000000424280044242BC0000200070004051
:1027700010B5401EB0F1807F01D3012010BD4FF095
:10278000E02460610F21601701F099FB0020A06137
:1027900007202061002010BD7047704770B590F889
:1027A0003C20012A26D0012480F83C40022280F8F7
:1027B0003D2003685A689D6822F070060A6832431B
:1027C0005A600D4B02689A4208D0B2F1804F05D092
:1027D0000A4B9A4202D00A4B9A4204D1496825F02A
:1027E00080031943916080F83D40002180F83C103F
:1027F000084670BD022070BD002C0140000400405E
:102800000008004010B5040003D094F83D0010B15A
:1028100007E0012010BD002084F83C00204600F0B5
:102820001FF8022084F83D00211D206801F0E2F825
:10283000012084F8460084F83E0084F83F0084F8C4
:10284000400084F8410084F8420084F8430084F892
:10285000440084F8450084F83D00002010BD0000CD
:1028600008B5154A0168154891420ED1816941F4B5
:10287000006181618069002200F4006000901146CF
:102880001920FFF7E7FB192010E0B1F1804F11D1BB
:10289000C16941F00101C161C069002200F001007D
:1028A000009011461C20FFF7D5FB1C20BDE8084016
:1028B000FFF7C2BB08BD0000002C01400010024021
:1028C00090F83D10012901D001207047022180F8C5
:1028D0003D100168CA6842F00102CA6000680B49F5
:1028E000884208D0B0F1804F05D00949884202D013
:1028F0000849884204D1816801F00701062903D004
:10290000016841F00101016000207047002C014086
:1029100000040040000800400168CA6822F001027B
:10292000CA6001680A6A41F211131A4207D10A6AA1
:102930009B101A4203D10A6822F001020A600121A9
:1029400080F83D100020704770B5044690F83C00B8
:10295000012817D0012584F83C50022084F83D005E
:102960002068826822F0770222F47F428260086841
:10297000502830D00DDC20284DD005DC98B310282D
:102980003BD148E0022070BD302844D0402834D1EB
:1029900039E0602828D0702806D0B0F5805F2CD0B0
:1029A000B0F5005F29D10AE0CB68D1E901212068A8
:1029B00001F056F82068816841F0770109E0CB68A2
:1029C000D1E90121206801F04BF82068816841F4C9
:1029D0008041816011E0CA684968206801F052F8BE
:1029E0005021206807E016E0CA684968206801F0B5
:1029F0005AF86021206801F03DF884F83D5000202D
:102A000084F83C0070BDCA684968206801F03AF853
:102A100040212068EFE7226801461046EBE7704747
:102A200070B50446006801694FF00005C943890785
:102A300015D4C168C943890711D4E91E0161012079
:102A40002077206880698007204602D0FFF7E7FFE3
:102A500004E000F098F8204600F096F8257720680A
:102A60000169C943490717D4C168C943490713D449
:102A70006FF004010161022020772068806910F462
:102A8000407F204602D0FFF7CAFF04E000F07BF849
:102A9000204600F079F8257720680169C9430907C5
:102AA00016D4C168C943090712D46FF00801016147
:102AB000042020772068C0698007204602D0FFF7F5
:102AC000AEFF04E000F05FF8204600F05DF82577E7
:102AD00020680169C943C90617D4C168C943C9063A
:102AE00013D46FF010010161082020772068C069BD
:102AF00010F4407F204602D0FFF791FF04E000F081
:102B000042F8204600F040F8257720680169C94363
:102B1000C90708D1C168C943C90704D1891E016129
:102B2000204600F033F820680169C943090609D43A
:102B3000C168C943090605D46FF0800101612046D0
:102B4000FFF72AFE20680169C943490609D4C16814
:102B5000C943490605D46FF040010161204600F0E9
:102B600077F820680169C94389060BD4C168C94355
:102B7000890607D46FF0200101612046BDE870404E
:102B8000FFF70BBE70BD70477047000070B506467A
:102B900027480025274C864234D1A07A401CC0B279
:102BA000A0720A282ED1E07A401CE0722248FDF77C
:102BB000EBFF01212048FDF749FF1F48FDF74BFEC1
:102BC00080051ED51C48FDF748FE80B203F005FBCA
:102BD0001A4A1B4B03F014FB00221A4B03F010FBA4
:102BE00003F0CEFA80B203F0F8FA022204F013F9EF
:102BF0000022154B03F074F803F0C2FAE18908448F
:102C0000E081A5721148864210D1207B401C2073C0
:102C1000207810B10D48FFF77FFE207B022805D1F8
:102C20002078002802D101F0FBFA257370BD000066
:102C30008003002038000020900200207B14AE4763
:102C4000E17A4A3F00408F4000006940C8030020FD
:102C50007047704770470000F8B502680446106876
:102C6000D168536910F00F0F4FF0000553D003F0F7
:102C7000010601F4907737435FD0C20705D0CA053B
:102C800003D5226C42F001022264420705D5DA071F
:102C900003D0226C42F002022264820705D5DA07D3
:102CA00003D0226C42F004022264020707D501F02F
:102CB0002002324303D0226C42F008022264226CCC
:102CC000002A34D0800604D5880602D5204600F0BC
:102CD0001CFF20684069216CC0F38010090700D4F4
:102CE00030B3204600F0F9FE2068416949061BD543
:102CF000416921F040014161A06BA8B1584941638D
:102D0000A06BFEF723FC002811D0A06B416B01B033
:102D1000BDE8F040084783060FD58B060DD5204649
:102D2000BDE8F84000F0F1BE2046FFF793FFF8BD84
:102D30002046FFF78FFF2564F8BD266B2023012E68
:102D400052D1C60650D5CE064ED5106850680090B8
:102D5000506940062AD5A16B086840680004000C41
:102D6000EAD0A68D8642E7D9E0858869202818D068
:102D7000D06820F48070D0602068416921F00101A2
:102D800041612068416921F04001416184F83E3091
:102D900025632068C16821F01001C160A06BFEF7B7
:102DA000B2FBA08DE18D401A81B219E0A08DE18DBA
:102DB000401A81B2E08D0028BED00029BCD0D06876
:102DC00020F49070D0602068426922F001024261D4
:102DD00084F83E3025632068C26822F01002C26089
:102DE0002046FFF736FFF8BD05062BD50D0629D581
:102DF00094F83D002128F6D1A068B0F5805F01D19C
:102E00002069B0B1206A411C2162216800784860C5
:102E1000E08C401E0004000CE084E4D12068C1680E
:102E200021F08001C1602068C16841F04001C160AB
:102E3000F8BD206A0088C0F308005060206A801C3A
:102E40002062E5E74006F3D54806F1D5D168204673
:102E500021F04001D16084F83D3000F00EF9F8BD5A
:102E6000CB3A000870B5040004D094F83D0000256A
:102E700010B106E0012070BD84F83C50204600F0FF
:102E800023F8242084F83D002068C16821F4005113
:102E9000C160204600F094FE2068016921F4904151
:102EA00001612068416921F02A0141612068C168FF
:102EB00041F40051C1602564202084F83D0084F86D
:102EC0003E00002070BD000030B585B000240094A5
:102ED0000194029403940068184988422CD1184840
:102EE000816941F480418161816901F480410491EB
:102EF000816941F0040181618069124D00F0040094
:102F000004904FF400700090022001900320039081
:102F100069462846FEF788FC2815CDE90004694675
:102F200028460294FEF780FC002201212520FFF7AD
:102F300091F82520FFF780F805B030BD003801403A
:102F4000001002400008014090F83E30202B0ED1C6
:102F500059B152B190F83C30012B08D0012380F8D0
:102F60003C300023036300F087BE0120704702203D
:102F70007047000000681049884214D10F4810497A
:102F80000078F12808D0F22809D0F32809D0F428D5
:102F90000ED0F5280ED006E00120087003E00220D4
:102FA00000E003204870012204490648FFF7CCBF27
:102FB0000420F7E70020F5E700380140A5000020D5
:102FC00038000020100400202DE9F843044690F852
:102FD0003D001F4616460D4620284CD1C5B1BEB156
:102FE00094F83C00012846D0012084F83C004FF0C2
:102FF0000008C4F84080212084F83D00FEF70AFD57
:10300000A6848146E684A068B0F5805F03D004E022
:103010000120BDE8F883206928B12E465FF0000545
:1030200084F83C800EE00026FAE78021204600F07C
:103030003EFEA0B9AEB116F8010B21684860E08CE5
:10304000401EE084E08C4B464FF0000200970028C1
:10305000EBD14FF04001204600F029FE30B10320B3
:10306000D7E735F8020BC0F30800E6E7202084F824
:103070003D000020CDE70220CBE77047FEE7016866
:103080004A69D24352050FD46FF480624A6100212D
:1030900040F8301F202242738173026942F004021B
:1030A0000261017301207047002070472DE9F84F3D
:1030B0000446006889460B9D01689846174641F40E
:1030C000806101602068016841F4807101600095B1
:1030D0004FF0011B0022594620460A9B00F0DEF803
:1030E0004FF4007A40B120680068C00501D5C4F8EB
:1030F00040A00320BDE8F88F216809F0FE000861B8
:103100002B46284920460A9A00F0FCF8F0BB2068BC
:103110004169806900902A4620460A9900F070F9BA
:1031200040B1206C04283AD12068016841F4007154
:10313000016034E0FEB2B8F1010F09D02168380A0D
:1031400008612A4620460A9900F05AF90028E8D179
:10315000206806612A4620460A9900F051F90028A5
:10316000DFD12068016841F4807101600095002280
:10317000594620460A9B00F091F80028B3D12168F7
:1031800009F0FF0040F00100086100E007E02B4675
:10319000044920460A9A00F0B5F80028AAD0012078
:1031A000A8E70000020001002DE9F843044600688A
:1031B0000D46DDE9089701689846164641F480718E
:1031C00001604B4600224FF001112046009700F0AD
:1031D00065F848B120680068C00502D54FF400705A
:1031E00020640320BDE8F883216805F0FE00086133
:1031F0003B464A461549204600F084F888B92068C5
:103200004169806900903A464946204600F0F8F846
:1032100048B1206C042804D12068016841F4007191
:1032200001600120DEE7F5B2B8F1010F09D0216895
:10323000300A08613A464946204600F0E1F8002885
:10324000E7D1206805610020CCE700000200010002
:1032500070B516460D4604460DE02046FFF70FFFF9
:1032600008B1012070BD681C05D0FEF7D3FB801BA0
:10327000A84207D835B120684069C0434007ECD464
:10328000002070BD002044F8300F20216173A0732E
:10329000216941F0200121612073E2E72DE9F04727
:1032A0001E4690460D460446C1F30747DDF82090C0
:1032B00008E0701C06D0FEF7ADFBA0EB0900B042A1
:1032C0000FD876B12068012F18D0806925EA000058
:1032D0000004000C14D000214145EAD00020BDE8D4
:1032E000F087002044F8300F20216173A07321691A
:1032F00041F02001216120730120F0E74069E5E7FA
:103300000121E9E72DE9F0479A4691460E46044629
:1033100000254FF02008C1F3074725E020684069E9
:10332000C043400514D42068016841F40071016075
:1033300021686FF480604861256384F83D8084F8DB
:103340003E50206C40F00400206484F83C501FE0A4
:10335000B9F1FF3F08D0FEF75DFBA0EB0A0149453C
:103360000CD8B9F1000F09D02068012F13D0806963
:1033700026EA00000004000C0BD0CFE744F8305FD1
:1033800084F80D80A573206940F02000206125732A
:103390000120BDE8F0874069EAE72DE9F04100250A
:1033A00090460E460446202717E04069C043C006F9
:1033B0000CD454F8301B6FF01000486144F81059D9
:1033C0006777A577206A2062257717E0FEF722FB52
:1033D000A0EB0800B04208D83EB120684169C9435B
:1033E0004906E2D40020BDE8F08144F8305F6773FD
:1033F000A573206940F02000206125730120F2E7C9
:1034000070B516460D4604460DE02046FFF737FE20
:1034100008B1012070BD681C05D0FEF7FBFA801BC7
:10342000A84207D835B120684069C0430006ECD4F3
:10343000002070BD002044F8300F20216173A0737C
:10344000216941F0200121612073E2E770B5134A40
:10345000111F081F01F032FE0028F8D10F4C203C4C
:10346000A06903F0FDFA0E4D00122870A06903F068
:10347000F7FA6870E06903F0F3FA0012A870E069E7
:1034800003F0EEFAE870206A03F0EAFA00122871FD
:10349000206A03F0E5FA687170BD00005800002052
:1034A000D000002010B51F48FEF7BAFA6420FEF7DE
:1034B000A9F980216B2000F097F86420FEF7A2F9AB
:1034C00000216B2000F090F8032000F058F8002055
:1034D00000F050F8322000F06FF80021382000F0A2
:1034E00083F800216A2000F07FF80021232000F0FB
:1034F0007BF88021372000F077F8752000F014F871
:10350000682801D0012010BD01216B2000F06CF86B
:1035100000216C2000F068F8322000F04DF8002007
:1035200010BD00002C0300201FB500218DF80C10E9
:1035300040F6FF73012203A98DE80E0013460246F0
:10354000D1210348FEF730FB9DF80C0004B010BDFC
:103550002C0300200EB540F6FF730092CDE9011355
:1035600002460123D1210248FEF71EFB00200EBDBA
:103570002C030020C006010E1C2000F035B8C00648
:10358000010E1B2000F030B8BC2801D3012110E04F
:10359000622801D302210CE02A2801D3032108E08C
:1035A000142801D3042104E00A2801D3052100E0F6
:1035B00006211A2000F018B810B504464FF47A70AE
:1035C000844201D9044602E0042C00D20424B0FB5A
:1035D000F4F0401EC1B2192000F006F86008BDE802
:1035E0001040FFF7D1BF000003B583B040F6FF7372
:1035F000012204A98DE80E0013460246D02103489B
:10360000FEF7FAFB05B0002000BD00002C030020EF
:103610000EB540F6FF730092CDE901130246012377
:10362000D0210248FEF7E8FB00200EBD2C0300204D
:103630003EB500242148009401941F490294016082
:103640008915816004730475042505614FF46021B8
:103650004460C161FDF704F908B1FCF75BFF009419
:1036600001240194694615480294FDF773F808B1E6
:10367000FCF750FF00940224694610480194FDF7BE
:1036800069F808B1FCF746FF0094032469460B482B
:103690000194FDF75FF808B1FCF73CFF6946074865
:1036A000CDE90045FDF756F808B1FCF733FF0348B4
:1036B000FCF7E4FF3EBD0000002401406002002052
:1036C0003EB50021124800910191104A029102601A
:1036D00081600173017501244FF460220461C261AD
:1036E0004160FDF7BDF808B1FCF714FF0820CDE9F3
:1036F0000004694606480294FDF72CF808B1FCF76F
:1037000009FF0348FCF7BAFF3EBD00000028014056
:10371000900200200F4810B50D490160062141605C
:1037200000214FF480228160C0E903124FF4A0020F
:103730004261017641768176C17601774177FDF766
:1037400073FD002803D0BDE81040FCF7E3BE10BDB8
:103750000064004004030020094808B5416941F0B5
:10376000010141614069002200F001000090114612
:103770000B20FEF76FFCBDE808400B20FEF75CBC99
:103780000010024030B585B0002418480094019420
:1037900002940394816941F020018161816901F003
:1037A00020010491816941F004018161816901F086
:1037B00004010491816941F00801816180690C4D27
:1037C00000F0080004900022F0212846FEF71CF9C2
:1037D000F02000900120CDE9010402200390694609
:1037E0002846FEF721F805B030BD00000010024069
:1037F000000801400D4810B50B4901600C494160BB
:1038000000214FF480428160C0E90312416181616F
:10381000C1610162FEF704F9002803D0BDE8104041
:10382000FCF778BE10BD0000005800402C030020BB
:10383000801A060010B586B000241948009401943F
:1038400002940394049415490594016041F61F41C4
:10385000C0E9011442F20F71C0E9031444618461AC
:10386000FEF7D0FF08B1FCF755FE4FF480500090F2
:1038700069460B48FFF768F808B1FCF74BFE049463
:1038800004A907480594FEF789FF08B1FCF742FE3A
:103890000348FFF715F806B010BD0000002C0140EA
:1038A0008003002010B586B00024184800940194CD
:1038B0000294039404944FF080410594016041F612
:1038C0001F41C0E9011442F20F71C0E90314846181
:1038D000FEF798FF08B1FCF71DFE4FF480500090F2
:1038E00069460A48FFF730F808B1FCF713FE049464
:1038F00004A906480594FEF751FF08B1FCF70AFE3B
:103900000248FEF7DDFF06B010BD0000C80300202E
:103910000E4810B50C4901604FF4E13141600021BF
:1039200081600C22C160C0E904128161C161FFF7AE
:1039300099FA08B1FCF7EEFDBDE8104001220449F8
:103940000248FFF701BB00000038014010040020CE
:10395000A5000020FEE7FEE770477047FEF714BBA6
:1039600030B593B028216846FCF762FC14210AA800
:10397000FCF75EFC002501200F95109511950104C0
:1039800012958DE8230004904FF4E010CDE9081063
:10399000022407946846FEF75BFD08B172B6FEE7A5
:1039A0000AA90F2081E831004FF48060CDE90D05B0
:1039B00002210AA8FEF75AFC08B172B6FEE74FF4DE
:1039C000004011900F940FA8FEF7DAFB002801D0F9
:1039D00072B6FEE713B030BD704700000148FFF734
:1039E0001FB80000800300200148FFF719B800004D
:1039F000C8030020F0B50268164B174C174D4FF066
:103A00008047984205D0B84203D0A04201D0A842D6
:103A100003D122F070064A683243984205D0B8427A
:103A200003D0A04201D0A84203D122F44074CA6856
:103A300022434C6922F08002224302608A68C262FB
:103A40000A688262984201D10969016301214161DA
:103A5000F0BD0000002C01400004004000080040C0
:103A600010B5846842EA032224F47F440A432243C7
:103A7000826010BD826822F070020A4342F00701A2
:103A80008160704710B5036A046A24F0010404627F
:103A9000846924F0F00444EA021423F00A020A4381
:103AA0008461026210BD10B5036A23F01003036243
:103AB0008369046A23F4704343EA023224F0A003CA
:103AC00043EA01118261016210BD10B5406A002114
:103AD000C185C184FFF7BEF810BD0168CA6822F431
:103AE0009072CA6001684A6922F001024A61016B62
:103AF000012904D10168CA6822F01002CA6020219D
:103B000080F83E1000210163704708B590F83E1020
:103B1000222901D0022008BD82684FF480539A42C6
:103B200001D1016921B1816A9A421BD04AB10AE0F0
:103B30000268816A5268C2F308020A80816A891C9D
:103B400008E0026972B10268526802F07F020A70EE
:103B5000816A491C8162C18D491E0904090CC18515
:103B600003D019E002685268F1E70168CA6822F0E0
:103B70002002CA600168CA6822F48072CA600168C3
:103B80004A6922F001024A61202180F83E10016B4F
:103B9000012903D0FFF7EEF9002008BD00210163E1
:103BA0000168CA6822F01002CA6001680A68D20679
:103BB00002D50A6849680091818DFFF74AF8EBE762
:103BC00070B5044600680169E26821F44051114370
:103BD00001612169A0680843616908432168CA68D6
:103BE00041F20C639A430243CA6020684169A269AA
:103BF00021F44071114341611E492068884202D17D
:103C0000FEF7E0FB01E0FEF7CDFB00EBC00101EBAE
:103C10000012606864218000B2FBF0F3B3FBF1F3A3
:103C20006FF018067343B2FBF0F5B2FBF0F605EB4C
:103C30008305322303EB0515B5FBF1F5B6FBF1F671
:103C400005F0F00505EB0615B2FBF0F6B2FBF0F05F
:103C5000B0FBF1F06FF01802504306EB800003EB6D
:103C60000010B0FBF1F0216800F00F0028448860DC
:103C700070BD00000038014081628285C28500214C
:103C80000164222280F83E2080F83C100168CA6856
:103C900042F48072CA6001684A6942F001024A61D6
:103CA0000068C16841F02001C160002070472DE923
:103CB000F041984617460E460446069D1DE0681CD6
:103CC0001BD02DB1FDF7A6FEA0EB0800A84214D929
:103CD0002068C16821F4D071C1602068416921F079
:103CE00001014161202084F83D0084F83E0000205D
:103CF00084F83C000320BDE8F0812068006836EAC3
:103D0000000004D00020B842D9D00020F3E7012001
:103D1000F9E700000148FEF79FBF000010040020F3
:103D20000148FDF783B9000004030020FEB500221E
:103D30000192009202928DF8062088228DF80020D0
:103D4000FF228DF80120A1228DF8022002228DF899
:103D5000032000226C4604E0835CA518521C2B71E2
:103D6000D2B28A42F8D300200B1D621805E0265C0F
:103D70001579401C35441571C0B29842F7D300251F
:103D80008E1D10E014F815008DF8080004EB4500B6
:103D9000012340788DF80900022202A90448FFF7A8
:103DA00013F96D1CEDB2B5EB560FEBD3FEBD000061
:103DB0001004002070B5A2B00C4606468421684667
:103DC000FCF736FA0020219088208DF80000FF20B3
:103DD0008DF80100AF208DF802008DF8034000211E
:103DE0006D4604E0705C6A18491C1071C9B2A142AA
:103DF000F8D30020221D291905E02E5C0B79401C08
:103E000033440B71C0B29042F7D30026A41D10E0DA
:103E100015F816008DF8840005EB46000123407864
:103E20008DF88500022221A90448FFF7CDF8761C01
:103E3000F6B2B6EB540FEBD322B070BD10040020E5
:103E40000EB5002101918DF8051000910291882195
:103E50008DF80010FF218DF80110A0218DF80210BF
:103E600001218DF803108DF8040000204FEA0D01A8
:103E70009DF805200B5C401C1A44C0B28DF805204B
:103E80000528F5D3012306220148FFF79DF80EBD52
:103E900010040020FEE7490050EAC12018BF0420AA
:103EA0004A0D18BF40F0010040F2FF72B2EB515FC3
:103EB00008BF40F00200012808BF0520704709072D
:103EC000090E002804DB00F1E02080F800147047A0
:103ED00000F00F0000F1E02080F8141D70472DE97C
:103EE000F0414F1E00EBC7010446D1E90001154621
:103EF0001E4637F006020DD02A46334602F080F9FE
:103F00007F1E04EBC703D3E9002301F0E9FE37F07D
:103F10000602F1D1022F25D0042F13D0062F18BF8F
:103F2000BDE8F0812A46334602F06AF9D4E90A2353
:103F300001F0D6FE2A46334602F062F9D4E908239E
:103F400001F0CEFE2A46334602F05AF9D4E90623A0
:103F500001F0C6FE2A46334602F052F9D4E90423A2
:103F600001F0BEFE2A46334602F04AF9D4E90223A4
:103F700001F0B6FE2A46334602F042F9D4E90023A6
:103F8000BDE8F04101F0ACBE012202F044BF01F0F7
:103F9000A7BE002213461046114601F05DBF000087
:103FA000024A0020110702F036BF000001FDFFFFAA
:103FB0002DE9F04D8D4F21F0004A86B005460C46A4
:103FC000BA452ADBAAEB070028430AD08848824575
:103FD00001DC1AD1CDB106B02846BDE8F04DFFF79F
:103FE000D3BF844A844B284602F00AF907460E469E
:103FF000824A834B2846214602F002F906B03A462F
:104000003346BDE8F04D01F06BBE0120FCF73FF9EF
:1040100006B0BDE8F04DFFF7BCBF7A48824542DAF2
:10402000BAF1795F0BDA2846FFF735FF042808BF9D
:10403000FFF7B6FF284606B02146BDE8F08D2A46B8
:104040000B46104602F0DCF8834602466E480E46E8
:104050000B4606217844FFF742FF5A46334602F0EA
:10406000CFF8804669488A465A4633460421784448
:10407000FFF735FF5A46334602F0C2F800223B46AE
:1040800001F02EFE02460B464046514601F0E4FE8A
:104090002A46234602F0B4F806B02A462346BDE875
:1040A000F04D01F01DBE284624F0004100223D469F
:1040B0003B4602F0A3F94FF0FF3202F0ACFE064699
:1040C000024653480F460B4606217844FFF707FF88
:1040D00032463B4602F094F8CDE900014D483246A5
:1040E0003B4604217844FFF7FAFE32463B4602F095
:1040F00087F800222B4601F0F3FD834602913046FB
:10410000394601F095FD804643480D46504517DC81
:10411000DDE900015A46029B01F09EFE42462B4615
:1041200002F06EF842462B4601F0DAFD012202F061
:1041300072FE304A304B02F053FA304A304B4CE0BA
:104140004FF0000A52460B46404601F0C9FDCDE94A
:10415000031052462B461046194602F051F83246DB
:104160003B4602F04BF9DDE9033201F075FE0646ED
:104170000F46DDE900015A46029B01F06DFE8346C1
:10418000009101223046394602F045FE194A1A4B89
:1041900002F034F906460F4601224046294602F055
:1041A0003AFE5A46009B02F02BF832463B4602F09C
:1041B00017FA06460F4601225046294602F02BFE0A
:1041C0000E4DDFF858802A46434602F017F9324672
:1041D0003B4602F013F92A46434602F00FF9002C41
:1041E000D8BF81F0004106B0BDE8F08D0000F03F7F
:1041F0000000F07F075C143326A6913C182D445430
:10420000FB21F93F0000E03FF83A00000E3B0000C0
:10421000823A0000983A00003333EF3FFB21E93F38
:10422000124881792430642918D008DC81B1012931
:1042300010D00A2910D00B2916D1807806E0652904
:104240000ED06E290ED06F290ED10079FFF7F8BD80
:104250000078FBE74078F9E74079F7E7C079F5E7C0
:10426000C078F3E78079F1E770470000380000205C
:1042700010B5124C2078FCF715F90A20FDF7C2FAA8
:104280006078FCF70FF90A20FDF7BCFAA078FCF77C
:1042900009F90A20FDF7B6FAA4F164000179C278A1
:1042A00001EB810102EB4101427902EBC20303EB16
:1042B000021201EB8201817110BD00009C00002000
:1042C0002DE9F84F04460D4621F000400091734956
:1042D000814211DC7249884201DC06D12CB12046B2
:1042E0002946BDE8F84FFFF74FBE6E48002DCCBF02
:1042F0006D496E49BDE8F88F6D49814211DD6D4908
:104300008142D8BF4FF0FF366DDD20462946FFF7CA
:10431000C2FD042808BFFFF743FE20462946BDE83A
:10432000F88F6549654F25F00045814233DD6449CA
:10433000814219DD002632464FF08043204629464F
:1043400001F0CEFC80468A4601222046294602F032
:1043500062FD00223B4602F043F94246534601F01B
:104360007BFD04460D463EE001260022BA463B4650
:104370002046294601F0B4FC80460F4600225346F1
:104380002046294602F02CF942463B4601F064FDE6
:1043900004460D4627E04B4981421BDDDFF828A18A
:1043A0000226002253462046294601F029FF00221A
:1043B0003B4601F095FC80460F46002253462046BE
:1043C000294602F00DF942463B4601F045FD044600
:1043D0000D4608E0032622462B4600203B4901F00B
:1043E0003BFD04460D4622462B461046194601F079
:1043F00007FF8B46824602460B4601F001FF074647
:104400000246334888460B4606217844FFF767FD8D
:1044100052465B4601F0F4FE82462E488B463A46F1
:10442000434605217844FFF75AFD3A46434601F0DA
:10443000E7FE02460B46002E504659460CDA01F0C4
:104440004FFC22462B4601F0DBFE01B022462B46F4
:10445000BDE8F04F01F0D2BF01F042FC22462B46EE
:1044600001F0CEFE1C4A7A4402EBC603D3E90023D6
:1044700002F0B6F822462B4602F0B2F8174A7A4408
:1044800002EBC603D3E9002301F0B8FF009A002A2B
:10449000B8BF81F00041BDE8F88F00000000104473
:1044A0000000F07F182D4454FB21F93FFB21F9BF98
:1044B0000000DC3F0000203E0000F33F0000F03F22
:1044C0000000E63F008003400000F83F0000F0BF1E
:1044D000FA370000B8370000563700001E370000DA
:1044E0002DE9F04D9446CCF1000423F000464CEA4F
:1044F0000404594F46EAD4749A46884621F0004293
:10450000BC4206D8454240EA050442EAD474BC42A3
:1045100004D9BDE8F04D6246FFF739BDAAF1405518
:10452000A5F17F6555EA0C040BD0022404EAAA74B5
:104530004A4DDFF82CE144EAD87452EA000B04D06B
:104540000CE0BDE8F04DFFF7BBBE002C14BF012C02
:10455000BDE8F08D022C30D0032C32D056EA0C0B83
:104560000AD0BE4220D1BA4209D126F0804622F0BC
:1045700080423346114617E000291ADB25E0DFF8B8
:10458000E4B0FB44002C04BFDBE90001BDE8F08D82
:10459000012C02BFDBE9000181F00041BDE8F08D94
:1045A000022C0AD0032C0CD0BA4212D1B8F1000F61
:1045B0000BDA2A482C49BDE8F08D28462B49BDE886
:1045C000F08D28467146BDE8F08D24482849BDE8A5
:1045D000F08D921B12153C2AC4BF204F244E10DCD4
:1045E000BAF1000FBEBF12F13C0F00273E4608DBB8
:1045F000624601F031FC21F00041FFF761FE074601
:104600000E4694B1012C08BF86F000460DD0194A21
:10461000194B022C3846314615D001F0E1FF2A46ED
:10462000BDE8F04D114B01F0DBBF002213463846C8
:10463000314601F069FD04BF0220FBF728FE384631
:104640003146BDE8F08D01F0CBFF2A46BDE8F04DC4
:10465000064B01F0D3BE00000000F07F182D44543B
:10466000FB2109C0B2360000FB21F9BFFB21094044
:10467000FB21F93F075C143326A6A13C10B5044684
:10468000FDF78AFE0349B0FBF1F16143491EFDD2FB
:1046900010BD000000093D0008B560B120208DF874
:1046A000000028208DF8010030208DF8020038200D
:1046B0008DF8030004E0A32204216846FBF7B0FD57
:1046C0006A46042140F69E2001F060FA00F0CCFF1B
:1046D00008BD00003EB5044602208DF80000CA2047
:1046E0008DF80100E3208DF8020009208DF8030009
:1046F0006A460421682001F049FAA3208DF80000E1
:10470000610609D5C0218DF80110C8218DF802106D
:10471000C2218DF8031005E08DF801008DF802002C
:104720008DF8030014F4C07F09D0C4218DF8041063
:10473000CC218DF80510C6218DF8061005E08DF806
:1047400004008DF805008DF806008DF808008DF83E
:1047500007008DF809006A460A2140F6A72001F0FB
:1047600015FAA0074FF0D80503D020208DF80000DF
:1047700001E08DF800506A46012140F6B62001F0B4
:1047800005FAA00601D5012000E0002000F08EF817
:1047900014F4C07F1ED0E0050AD5B2208DF80000C9
:1047A0008B208DF80100B6208DF802009B2009E0D7
:1047B000B0208DF8000080208DF80100B4208DF825
:1047C000020090208DF803006A46042140F6A220E2
:1047D00001F0DCF9E1074FF40B6022D0F8218DF8ED
:1047E00000106A46012101F0D1F9FA21072000F0FA
:1047F00077FA072000F042FA012000F05FFA642007
:1048000000F002FB4FF4FA7000F00EFBC8212548BF
:1048100000F0FCF9282000F011FA0A2000F01EFA3E
:1048200005E08DF800506A46012101F0AFF9A007BC
:1048300003D5D9208DF8000001E08DF800506A46BC
:10484000012140F23D7001F0A1F9600701D501207E
:1048500000E0002000F048F8E00601D5012000E06B
:104860000020FFF719FF104D44F00800688100F0A8
:10487000FBFE0020A873600601D50620A87314F47F
:10488000C07F02D0A87B801DA87314F0140F02D043
:10489000A87B1030A873A00702D0A87B001DA873C6
:1048A00000203EBD09E3CA02C00000200EB54FF44F
:1048B000976310B106A107C901E008A207CA8DE8F5
:1048C00007006A460921184601F060F90EBD000094
:1048D000B8AAB38DB4980D355D000000B8AAAAAA95
:1048E000B088C3C5C700000008B560B1C0208DF80E
:1048F0000000C2208DF80100C4208DF80200C620FF
:104900008DF8030004E08B2204216846FBF788FC45
:104910006A46042140F6982001F038F900F0A4FE20
:1049200008BD0000C8234FF48062024940F6F6300B
:1049300000F08ABD406F00082DE9FF4F89B017468F
:10494000DDE916520024544E884681462C80A2464A
:10495000B07B694600F01CFE4FF0FF3B18B1584693
:104960000DB0BDE8F08F708910F0140F4CD0BDF879
:1049700000109DF8022049BA090441EA02239DF87B
:1049800003100B433B60BDF804109DF8062049BAA4
:10499000090441EA02229DF807101B140A437A60B9
:1049A000BDF808109DF80A4049BA090441EA0421FB
:1049B0009DF80B4012142143B960BDF80C409DF8DE
:1049C0000EC064BA240444EA0C2C9DF80F4009146C
:1049D0004CEA040CC7F80CC04FEA2C475B43494330
:1049E00002FB023207FB071111441024A1F1706190
:1049F000B1F1007F04D900F037FEA5F800A0AEE7C2
:104A0000298841F4807129804206694611D50A1926
:104A1000A41D13885BBAA8F8003053885BBAA8F8C5
:104A20000230928852BAA8F804202A8842F008027C
:104A30002A8010F4C07F11D00A19A41D13885BBA14
:104A4000A9F8003053885BBAA9F80230928852BAAC
:104A5000A9F804202A8842F070022A80800716D024
:104A60000C44E07800F0C00500F03F016078C0071A
:104A700006D0C80801F007013268491C02B190470E
:104A80006078000703D5716809B1A80988470C98B8
:104A900000F0E8FA002063E7C000002030B50446CB
:104AA00013A285B007CA8DE807004FF0FF35C82C68
:104AB00016D8C820B0FBF4F1491E080A8DF80C0086
:104AC0008DF80D1003AA022140F2162001F05EF8C5
:104AD00030B96A460C2140F6C12001F057F810B1F8
:104AE000284605B030BD054884810020F9E7000064
:104AF000FEF2ABC4AAF1DFDFBBAFDFDFC0000020F6
:104B00002DE9FF4104463CA004F003030068029035
:104B10003AA0006803903AA006683AA0056802A887
:104B2000C15C8DF80010C4F3C101425C8DF8012016
:104B3000C4F38112805C8DF8020003A8C35C8DF879
:104B40000430415C8DF80510805C8DF806006A46E3
:104B5000032140F2264001F019F84FF0FF37E0BB87
:104B600001AA032140F22A4001F010F8A8BBCDE9C8
:104B7000006560070BD59DF8000040F001008DF83E
:104B800000009DF8040040F001008DF80400A0062C
:104B90000BD59DF8010040F001008DF801009DF853
:104BA000050040F001008DF80500E0050BD59DF8EB
:104BB000020040F001008DF802009DF8060040F070
:104BC00001008DF806006A4603214FF4886000F06A
:104BD000DDFF10B901AA032100E004E040F23140FA
:104BE00000F0D4FF18B1384604B0BDE8F0810648A3
:104BF00004810020F8E700004CCD6C000CC92C00AB
:104C00003656760026466600C00000204FF47A72C1
:104C100090FBF2F008B54843010E8DF80010010C2E
:104C20008DF80110010A8DF802108DF803006A4614
:104C300004214FF4AE7000F0A9FF08BD0521B0FBC0
:104C4000F1F008B5010A8DF800108DF801006A46F0
:104C500002214FF4AD7000F099FF08BD0521B0FBB3
:104C6000F1F008B5010A8DF800108DF801006A46D0
:104C700002214FF4AC7000F089FF08BD08B5002197
:104C80008DF80010C10702D030218DF80010810787
:104C900005D59DF8001041F00C018DF8001040077B
:104CA00005D59DF8000040F003008DF800006A462D
:104CB00001214FF4A47000F069FF08BD08B560B190
:104CC000042800D90420401E8DF800006A46012106
:104CD00040F24F1000F05AFF08BD0120F3E700003A
:104CE0002DE9FC41054640074FF0FF367CD0B1F579
:104CF000C86F79D8084601F007FF3E4901F0EEFD84
:104D0000074601A800F0F8FA9DF80400022806D032
:104D100004280DD008282ED0102865D134E00E21AB
:104D2000384602F0A6F801F0B7FE84B2324907E037
:104D30000D21384602F09DF801F0AEFE2F4984B2F5
:104D4000384601F0F5FE01F0A7FE210A8DF80010AB
:104D500080B28DF80140010A8DF802108DF8030031
:104D6000E8076C4620D0224602214FF4EA7000F09A
:104D70000DFFC8BB11E00C21384602F07AF801F0B3
:104D80008BFE84B21E49DBE70B21384602F071F836
:104D900001F082FE84B21B49D2E7A21C02214FF42B
:104DA000927000F0F3FEF8B9A8070DD56A4602210B
:104DB0004FF4EC7000F0EAFEB0B9A21C02214FF4EF
:104DC000947000F0E3FE78B9680710D56A460221B6
:104DD0004FF4EE7000F0DAFE30B9A21C02214FF45D
:104DE000967000F0D3FE10B13046BDE8FC81002083
:104DF000FBE7000000004843000040460000C045BB
:104E0000000040450000C0440521B0FBF1F008B5AA
:104E1000010A8DF800108DF801006A4602214FF456
:104E2000EF7000F0B3FE08BD0521B0FBF1F008B54E
:104E3000010A8DF800108DF801006A4602214FF436
:104E4000ED7000F0A3FE08BD00B5024600F00DF8BD
:104E50000346D01C00F009F843EAC003901D00F09F
:104E600004F843EA801080B200BD90F900100029D8
:104E700002DD4FF00000704702DA4FF00400704787
:104E800090F90110002902DD4FF00100704702DAAD
:104E90004FF00500704790F90200002802DD4FF046
:104EA0000200704702DA4FF0060070474FF007002B
:104EB000704700008AB0FDF76FF8FEF751FD4FF420
:104EC000FA70FCF79FFCFEF75DFCFEF721FDFEF794
:104ED00043FCFEF7ADFBFEF78DFCFEF7F1FBFEF7A2
:104EE000A9FCFEF717FCFEF7DDFC00250127CDE944
:104EF000055742F2204000904FF411500190079561
:104F000042F26040CDE902050495CDE90875694695
:104F10004F48FBF79FFF08B172B6FEE74C48FCF71D
:104F2000BFFA08B172B6FEE702214948FBF712FF4B
:104F300008B172B6FEE7FEF7B5FA00BF00F08CF9D3
:104F40000028FBD1FFF794F9FFF76AF9FBF7E4FAC1
:104F5000404EDFF80481A6F1640400E0A5722078D9
:104F60000028FBD0A07828B13A4802215438FEF737
:104F7000DDFEA5706078022804D0032808D004283C
:104F80004CD11CE0FBF702FB33486021943843E02E
:104F9000E07808B1B07906E0207908B1F07902E054
:104FA000607918B1307AFBF77DFA00E06772FEF79E
:104FB0004DFA18212948FEF7FDFE65722EE0FBF739
:104FC000E5FAE07808B1B07906E0207908B1F07927
:104FD00002E0607918B1307AFBF764FA00E067729A
:104FE000FEF734FA607A0028FDD01C4B002078339D
:104FF00041461A5C0A54401CC0B26028F9D3174AD3
:10500000002001EB000C135C401CC0B28CF8603037
:105010001828F6D378211048FEF7CCFEE07A06284F
:105020009DD1E08901F0D9F800220D4B00F014FF6A
:1050300001F0A6F80749E0815439020A0A70487065
:10504000044802215438FEF771FEE57287E700003C
:10505000040300209C000020DC010020D000002080
:1050600000001840704700002DE9F041124C20F07C
:105070000101002594F8240010B10020BDE8F08162
:10508000A07A4FF0FF3668B10840277C2074884230
:1050900000D0354641B1012000F0A0FD00F0E4FA57
:1050A00038B127743046E9E7207D00B1012000F0D7
:1050B00095FD2846E2E70000000000202DE9F74FAB
:1050C0008EB00CA902A8CDE900010BAB03AA09A977
:1050D00007A8FFF731FC18B1012011B0BDE8F08F2F
:1050E000BDF80800C0057DD5039801F0F5FC6FF010
:1050F0001D04214601F0BDFE8246049801F0ECFC3F
:10510000214601F0B6FE8146059801F0E5FC2146F6
:1051100001F0AFFE8046069801F0DEFC214601F06A
:10512000A8FE05460121504601F0A3FE0646414671
:1051300001F0FEFC04464FF04041484601F0F8FC07
:105140000746294601F0F4FC214601F05FFB01F01F
:1051500031FBFEF72DFF4FF0663B5A463D4B01F009
:105160004FF800F08BFD0E9908600121404601F0D8
:1051700080FE4146009001F0DBFC0446384649467B
:1051800001F0D6FC214601F09FFD4FF07E5101F069
:105190003DFB01F00FFB07460C463046494601F047
:1051A000C7FC06462946009801F0C2FC314601F0D2
:1051B0002DFB01F0FFFA3A462346FFF791F95A46D4
:1051C000244B01F01DF800F059FD0F9908602946A5
:1051D000084601F0ADFC07464146084601F0A8FC30
:1051E000064600E034E04946084601F0A1FC0446CA
:1051F0005146084601F09CFC214601F007FB314670
:1052000001F062FD394601F05FFD01F0D3FA064678
:105210000C462946504601F08BFC0546414648465F
:1052200001F086FC294601F0F1FA012101F021FE8E
:1052300001F0C0FA32462346FFF752F95A46054BB1
:1052400000F0DEFF00F01AFD10990860002044E72E
:10525000022042E766A64C4010B52548FCF7E0FB6B
:1052600000F068F808B10A2010BD782000F036FC84
:1052700010F0FF0F01D0012010BD7820FFF7F4FEE1
:1052800010F0FF0F01D0022010BD642000F0E8FBF9
:1052900010F0FF0F01D0032010BDFFF743FB10F00B
:1052A000FF0F01D0042010BD1248FFF7CDFDFFF71E
:1052B00027FC10F0FF0F01D0052010BD40F2731045
:1052C000FFF708FA10F0FF0F01D0062010BD642090
:1052D000FFF7E4FB10F0FF0F01D0072010BD012005
:1052E00000F0EEFA10F0FF00F8D0092010BD000029
:1052F0002C0300202C0000200D494A7A42B1012ADB
:1053000008D0022A0FD0032A0FD04FF0FF30704789
:10531000022200E004220270C97C11B11106C90DFD
:105320000170002070470822F5E71022F3E7000023
:10533000000000202DE9FC41424C80208DF8000047
:1053400020686A460121807CFEF762F94FF0FF3742
:1053500000286FD16420FCF755FA00258DF8005025
:1053600020686A460121807CFEF752F9002861D14D
:1053700020686A460621807DFEF7ECF8002859D1A6
:105380009DF805009DF80310C007400F01F00101D2
:1053900040EA41009DF801104FF0010601F00101C3
:1053A000084304D001282FD002280ED042E0206804
:1053B0006A460121C078FEF7CDF8D8BB9DF8000001
:1053C00010F00F0036D004281ED0E574FF2004F83A
:1053D0000A0F4FF6FF7104F8020C04F8010C60701C
:1053E000A180A0712072A67026766576E572A572FE
:1053F000E56025616561A576E576A5834FF4FA60E1
:1054000000F096FAB0B901E0E674DFE7022000F0A0
:10541000C1F978B92A2000F0EFFA58B9322000F02B
:105420001FFB38B90020FFF71FFE18B9002000F05D
:10543000E3F910B13846BDE8FC81002000F04EFBD6
:105440000020F8E7000000202DE9FF4FDFF88C80F6
:10545000064685B098F8250015460F464FF0FF39EF
:1054600098BB97B3002420E0301B102800DD1020EB
:1054700080B283463A1901469246204600F086FBE8
:1054800018BB6A465946204600F0C6F8E8B95046AF
:105490005A466946FAF798FE20B16FF0010009B04C
:1054A000BDE8F08F04EB0B0084B2B442DCD3280AD1
:1054B0008DF810008DF81150D8F80000444604AA69
:1054C000807E0221FEF7A4F808B14846E7E70120F4
:1054D00084F825000898E0840020E0E70000002020
:1054E0002DE9F84304464FF0FF39282840D8072714
:1054F000264D00267CB1012000F04EFA20208DF8C8
:1055000000004FF00108012C15D0052C16D88DF89D
:10551000018005201DE0002000F03EFA8DF80060BB
:105520008DF8017028686A460221807CFEF770F8C9
:10553000F0B92E7527E08DF80160EAE7142C04D845
:1055400002208DF801000A2003E003208DF80100FD
:10555000142000F051FA9DF801006A4607EB801014
:105560008DF8010028680221807CFEF751F810B107
:105570004846BDE8F8830820A8722E7385F8148089
:105580000020FFF771FD0020F3E70000000000207D
:105590002DE9F8431F4C0646174694F82400894627
:1055A0004FF0FF3868B3A07A58B320686A460221EA
:1055B000807AFDF7CFFF20BBBDF8000045BAB542A9
:1055C00002D2002038701CE060684088B5EB500FB4
:1055D00010D920686A460121407CFDF7BBFF80B9E5
:1055E0009DF80000C00605D500F03EF86FF0010000
:1055F000BDE8F8832068F1B24A46C07AFDF7AAFFF9
:1056000008B14046F4E7B5FBF6F0401E38700020C4
:10561000EEE7000000000020F8B516000D464FF040
:10562000FF371CD00F4CA17AC9B1010A8DF80010C8
:10563000C0B28DF8010061682844498988420ED8BB
:1056400020686A460221007EFDF7E2FF38B9206833
:10565000E9B23246407DFDF77DFF002800D0384694
:10566000F8BD000000000020F8B5494C4FF0FF36AF
:10567000A07A00286CD000258DF8005020686A467A
:105680000121C07BFDF7C4FF00287FD120686A4656
:1056900001214079FDF7BCFF002877D120686A46D8
:1056A00001210079FDF7B4FF00286FD194F82400A0
:1056B00098B30C208DF8000020686A46012100791B
:1056C000FDF7A6FF002861D13220FCF79BF8C0202F
:1056D0008DF80000A07AC00702D0E0208DF800000D
:1056E00020686A4601210079FDF792FF80BB607C4B
:1056F00018B102208DF8000001E08DF800502068FC
:105700006A460121C07BFDF783FF08BB8DF800507E
:1057100020686A460121407934E0FFE704208DF8D3
:10572000000020686A4601210079FDF771FF78B911
:10573000A07C70B9A07AC0070BD060208DF8000063
:1057400020686A4601210079FDF762FF00B902E096
:105750001CE04020F2E73220FCF754F8607C18B1DE
:1057600001208DF8000001E08DF8005020686A46A5
:105770000121C07BFDF74CFF40B92068044A01219C
:1057800040791032FDF744FF002800D03046F8BDC4
:105790000000002038B5174C4FF0FF35A17A09B34F
:1057A000022806D0042806D008280ED0102819D1C7
:1057B0000DE0002000E008208DF80000607A9DF8E0
:1057C0000010B0EBD10F04D005E01020F4E7182052
:1057D000F2E7002038BD20686A460121C079FDF754
:1057E00017FF08B1284638BD9DF80000C008607258
:1057F000EFE7000000000020F8B5304C0546A07C23
:10580000A84201D10020F8BD2C484FF0FF366A466F
:1058100000684FF00101007915B3FDF79BFEA8BBAE
:105820009DF800006A4620F020008DF800002068F6
:1058300001210079FDF7ECFE40BB0320FBF7E2FFFE
:1058400002208DF8000094F8220050B3822026E058
:1058500020686A460121007DFDF7DAFEB0B92BE031
:10586000FDF778FE90B9A07AC0079DF8000002D03D
:1058700040F0200001E020F020008DF800002068BA
:105880006A4601210079FDF7C3FE08B13046F8BD34
:105890000320FBF7B7FF94F8220000B180208DF8B9
:1058A000000094F823000028D2D09DF8000040F0BA
:1058B00030008DF80000CBE7A574A3E700000020BE
:1058C00038B51A4C94F8241081421BD00025F0B151
:1058D00094F82500C0B1002000F080F90020FFF707
:1058E0008BFFE08C00F0BCF88DF800506A46012177
:1058F0002320FDF78DFE012084F8240000F06EF9CE
:10590000FFF7B2FE002038BD4FF0FF3038BD002059
:1059100000F064F9207C8DF800006A460121232004
:10592000FDF776FE84F82450EAE70000000000202E
:1059300038B5184C4FF0FF35A17A21B3FA2809D0B9
:10594000B0F5FA7F08D0B0F57A7F0FD0B0F5FA6FD6
:1059500019D10DE0002000E008208DF80000207A29
:105960009DF80010B0EBD10F04D005E01020F4E753
:105970001820F2E7002038BD20686A4601218079AE
:10598000FDF746FE08B1284638BD9DF80000C00866
:105990002072EFE70000002038B5164C054694F859
:1059A0002300A84201D1002038BD0DB1302000E015
:1059B00000208DF80000A07C28B19DF8000040F088
:1059C00002008DF8000094F8220028B19DF8000034
:1059D00040F080008DF8000020686A460121007DBB
:1059E000FDF716FE10B14FF0FF3038BD84F823509C
:1059F000D9E700000000002038B5184C4FF0FF3503
:105A0000A17A21B3BC2801D3012010E0622801D380
:105A100002200CE02A2801D3032008E0142801D337
:105A2000042004E00A2801D3052000E006208DF8B8
:105A30000000E07A9DF80010884201D1002038BDB6
:105A400020686A4601218078FDF7E2FD08B128460A
:105A500038BD9DF80000E072F0E700000000002073
:105A6000F8B51D4D04464FF0FF37A87A38B395F8C6
:105A7000240020BB287D4FF47A7648B164B1282CED
:105A800003D8E0B2FFF72CFD24E00020FFF728FD4B
:105A9000042C05D2042406E00020FFF721FDF9E7DD
:105AA000B44200D93446B6FBF4F0401E8DF8000035
:105AB00028686A4601214078FDF7AAFD08B13846FA
:105AC000F8BD9DF80000401CB6FBF0F0E8814008EE
:105AD000FFF792FF0020F8BD00000020F8B5044653
