:020000040800F2
:100000008007002065010008B92F0008792A000840
:1000100000000000000000000000000000000000E0
:10002000000000000000000000000000BD2F0008DC
:100030000000000000000000BB2F0008BF2F0008D8
:100040009501000895010008950100089501000838
:100050009501000895010008950100089501000828
:100060009501000895010008950100089501000818
:100070009501000895010008950100089501000808
:100080009501000800000000000000009501000834
:100090000000000095010008950100089501000886
:1000A0000000000095010008950100089501000876
:1000B0009501000800000000A11500089501000846
:1000C00000F002F800F03EF80CA030C80838241800
:1000D0002D18A246671EAB4654465D46AC4201D180
:1000E00000F030F87E460F3E0FCCB6460126334274
:1000F00000D0FB1AA246AB46334318475C5C0000B5
:100100007C5C0000103A02D378C878C1FAD8520754
:1001100001D330C830C101D504680C6070470000BD
:100120000023002400250026103A01D378C1FBD813
:10013000520700D330C100D50B6070471FB51FBDFB
:1001400010B510BD01F078F91146FFF7F7FF03F085
:100150003DFF01F090F903B4FFF7F2FF03BC01F09B
:10016000E3F900000F4880F308880F480168090E82
:100170000E4A914205D10E480E4901600E480F49C2
:1001800001600F4880470F480047FEE7FEE7FEE7A3
:10019000FEE7FEE7FEE700000B480C490C4A0D4B5A
:1001A0007047000080070020040000001F000000CE
:1001B0001810024001000000000001400000000093
:1001C00037300008C10000088001002080070020AF
:1001D0008003002080030020FEB5054610460C4633
:1001E000184373D0AE468C460020AD1A01469C41A0
:1001F00067D36646002701243D46B61A9D4102D3C7
:1002000013463A462124654676462F04360C3E4373
:100210002D0CB61A9D4104D3150C1B042B4312045C
:100220001034654676462F06360A3E432D0AB61A26
:100230009D4104D3150E1B022B4312020834654660
:1002400076462F0736093E432D09B61A9D4104D341
:10025000150F1B012B431201241D65467646AF077F
:10026000B6083E43AD08B61A9D4104D3950F9B00D6
:100270002B439200A41C65467646EF0776083E4362
:100280006D08B61A9D411AD392185B41641C16E0A2
:100290000018764665464941B71A9D410191009084
:1002A00009D36046B11A98418E4684460098019958
:1002B0000025401C6941DD0752082A435B08641E83
:1002C000E6D57246634603B0F0BDFFE70020014665
:1002D000C046C0462A462346F5E7034610B50B4301
:1002E0009B070FD1042A0DD308C810C9121FA342BF
:1002F000F8D018BA21BA884201D9012010BD0020D7
:10030000C04310BD002A03D0D30703D0521C07E01E
:10031000002010BD03780C78401C491C1B1B07D122
:1003200003780C78401C491C1B1B01D1921EF1D193
:10033000184610BDD2B210B513029A1813049A18B9
:1003400000F00EF810BD01E004C0091F0429FBD223
:100350008B0701D50280801CC90700D0027070474E
:1003600000290BD0C30702D00270401C491E02298D
:1003700004D3830702D50280801C891EE3E7002294
:10038000EEE70022DFE7002203098B422CD3030AA9
:100390008B4211D300239C464EE003460B433CD4D2
:1003A000002243088B4231D303098B421CD3030A3A
:1003B0008B4201D394463FE0C3098B4201D3CB016A
:1003C000C01A524183098B4201D38B01C01A52419A
:1003D00043098B4201D34B01C01A524103098B429E
:1003E00001D30B01C01A5241C3088B4201D3CB0089
:1003F000C01A524183088B4201D38B00C01A52416C
:1004000043088B4201D34B00C01A5241411A00D21B
:1004100001465241104670475DE0CA0F00D0494284
:10042000031000D34042534000229C4603098B42F4
:100430002DD3030A8B4212D3FC22890112BA030A7C
:100440008B420CD3890192118B4208D389019211FE
:100450008B4204D389013AD0921100E08909C30983
:100460008B4201D3CB01C01A524183098B4201D385
:100470008B01C01A524143098B4201D34B01C01A70
:10048000524103098B4201D30B01C01A5241C308E8
:100490008B4201D3CB00C01A524183088B4201D357
:1004A0008B00C01A5241D9D243088B4201D34B0072
:1004B000C01A5241411A00D20146634652415B10B4
:1004C000104601D34042002B00D549427047634695
:1004D0005B1000D3404201B50020C046C04602BDBB
:1004E00070477047704700000246C80FC00781433D
:1004F0004B0030B54B405B009B0D20D01923DB0631
:10050000C91801231B05994220DB0324A4070425F5
:100510001346AB400BD3002B04D1EB0613409B00DA
:10052000E34204D401246407002312195941FF2334
:100530001B0599420BD2C9000143500F09E0CB02C1
:1005400004D501430803024305D0054830BDFF210F
:10055000C905084330BD084607210905884330BD59
:100560000000C07FF0B50C46871A9C410D46861AE4
:100570009D4103D2C01BA141D21963410D0D1F0D36
:10058000C94EEC1BAE435CD07F057F0D0026002FCB
:1005900051D02D05AC46A943DD020123ED0A1B0510
:1005A0001D4320231B1B24D41746E74038187141F4
:1005B0002F46E740CC199D402818314661410C0D6B
:1005C00027D161449A4013D50023401C5941520061
:1005D0000ED14008400001224B005205D34207D300
:1005E00005204007C14201D5B04900E0B04930467E
:1005F000F0BD6B00002A00D001229A181F23203C76
:100600001B1B01D5002302E0E540281871410C0DA9
:10061000D7D0012424050919C407CD07400849088B
:10062000E40F28436144002CD5D00024401C6141D4
:100630009A40D0D1CDE76A05520DD9D1C90FC9076B
:10064000D5E79C4D4E00002801D0012400E0002495
:1006500034195F00002A01D0012600E00026BE19EF
:10066000954FAC420CD8AE420AD8B44206D0012510
:100670006D05EC42BCD010461946F0BD9942FCD045
:1006800000203946F0BDF0B51FB40C460F46811A64
:100690009F412546861A9D4106D20125ED076F40F0
:1006A000401ABC4152187B41210D1E0D8D1BAC46DA
:1006B0007D4D8D437ED075056D0D7CD00D05AE460C
:1006C000AC431B031B0B794D52429D4120236646D0
:1006D0009B1B14D31746F74038180026009074412E
:1006E00060462F460741E41900989D40281866414E
:1006F00016D4714671189A4025D5012320E093182D
:100700002A466A415200002B00D0521C1E23203E74
:100710009B1B002B61DD3541EE1728186641E8D59B
:10072000001876415B1C9A4000D3401C4B05F3181F
:100730001524E34010D3002B52D071467118D30F0B
:10074000C01802D3491C05B0F0BD0123DB079A4253
:10075000F9D140084000F6E701225205B21801D154
:10076000002853D00123CC0ADB029943891E002ABA
:1007700008D1020C03D0020C0004103902E002463A
:10078000002020390023550B05D112020823550BF8
:1007900001D152010D23550C01D112011B1DD50CA5
:1007A00001D192009B1C150D01D152005B1C20252C
:1007B000EE1A01E02CE022E00546F5401543984092
:1007C000CA1AE10769181305C918002ABBDA032001
:1007D00040070818C10FC9070FE071466118B2E75A
:1007E000F10740080843711071444A000CD00123FE
:1007F0005B059A42A7D2C90FC9070020A3E74905A4
:10080000490D26D1002001E00028F4D100219AE70B
:10081000284D6600002801D0012100E00021711858
:100820005F00002A01D0012600E00026BE19224FF9
:10083000A94210D8AE420ED8B14208D001256D05AC
:10084000E94206D01946A802414010467BE79C4287
:1008500001D0214677E70020394674E710B50C46F1
:100860005C4005D50124E4076340FFF70CFF10BD91
:10087000FFF778FE10BD30B40C465C4004D501246F
:10088000E407634030BC6DE630BCFCE670B5012483
:10089000E40761400D465D4002D4FFF763FE70BD82
:1008A0006340FFF7F0FE70BDFF0700000000F0FF9F
:1008B0000000F07F0000E0FF0000F87FF0B5F94D88
:1008C0000C091E092C402E402F468BB0A7437DD02B
:1008D000B543FCD0002E7AD0002CFCD00D465D40F4
:1008E000ED0F2543AC1BFF25AD0464190894C50228
:1008F000440DC9022143500DDC0204430120C0070E
:1009000001430443D2020191200C110C00958C4646
:10091000010423468B430A9161460904E24D8A4350
:100920000991010A7D4449198039097805464D43EA
:1009300001266D18F605751B6943C90C640B891CEB
:100940004C436418B5012C1B250C2E04B4434C43B6
:100950004D43210C691889090591009DE90701D0D3
:100960000121C90704912C4601996708CD072F433F
:100970004C08059DE10B4D432D0C294666467543F9
:1009800002950D4645432E46029D7D1BB4410095C0
:100990000D465D4301942C0C2F040D465543AE4685
:1009A0002D0C3D43029503947546049C2D04641B55
:1009B000049406D2029C039D641C00267541039595
:1009C000029401AC70CC009F7D1B01E03EE162E12E
:1009D000B44109040095079101940599A408614365
:1009E000090C0C464443650BE7040C466646744309
:1009F000A646640B3C43039502947446049DE404AC
:100A00002C1B049406D2029C039D641C0026754195
:100A10000395029401AC70CC009F7D1BB4410194FE
:100A20000C465C430095650FE7000C465443A64610
:100A3000640F3C43039502947446049DE4002C1B10
:100A4000049406D2029C039D641C00267541039504
:100A5000029401AC70CC009F7D1BB441AE09AF067F
:100A6000049DC900AD092F43049DA406AD0604955D
:100A7000079D344369180791059DE10B4D432D0CEB
:100A800029466646754302950D4645432E46029D0E
:100A90007D1BB44100950D465D4301942C0C2F0441
:100AA0000D465543AE462D0C3D43029503947546C5
:100AB000049C2D04641B049406D2029C039D641CB8
:100AC000002675410395029401AC70CC009F7D1BFC
:100AD000B44101948C050694079C890A611800951D
:100AE0000791019C0599A4086143090C0D464543F3
:100AF000680BEF040D46644665436C0B3C43049F52
:100B0000ED047D1BAC4602D20025641C6841009EAA
:100B1000019D371B85410846584301950C46460FF9
:100B2000C5005443600F28436546E4002C1B02D2E5
:100B30000025401C6E41019D3F1AB5412846BD0964
:100B4000800628438446A009BF064E020699A406E3
:100B500076180743079D002068410A9907901943BA
:100B60000020099B00906046FF1913434041E20FAB
:100B700064003A43A4460446D71A8C41A04203D9E4
:100B80000120009020463A46C70F94184041624623
:100B9000D20F2243644664000494009CBE46640065
:100BA000D71AA446044602978C417746002F01D1FC
:100BB000A04204D96046401C8446029A2046C40FD5
:100BC000A64694184041049A0546D20F2243644633
:100BD0006400D31A8D417146002901D1A84202D97F
:100BE00028461A46641C10430122002800D01643F0
:100BF00061020020079B891904465C410223002CF6
:100C000002DB491813466441089DCE0A2D145D1974
:100C10004B056705E10A2C050D1908993E43C907E4
:100C20006940002B08D0934006D30022761C514126
:100C3000002B01D1760876001C4A002D43DB1542BB
:100C400041D0AA433FD030460BB0F0BD06180D4648
:100C50004D41174C7642AC411AD395181C465C4165
:100C6000134A6D42A24113D3012252054C00D442D3
:100C70000AD15C00D4420BD04B4002D59202114302
:100C8000E2E749004908DFE75940C90FC90718E002
:100C900000200849D8E7054801420DD10342F7D0AA
:100CA000F2E700000000FF077E5200000000F07F26
:100CB0000000E0FF0000F87F114859400143C012D6
:100CC00041400020C0E70123089A9B069A4205DCB8
:100CD000032252078918C90FC907B5E70522520731
:100CE0008918074A1143D2125140ADE770B5154635
:100CF0001C4602460B4628462146FFF7DFFD70BD25
:100D0000FFFFFF7FF0B58B4C0F09254689B0BD432F
:100D10007BD01D092646AE43FAD00E465E402740E2
:100D2000F60F3E43254071D024012142FBD0FF2421
:100D3000AD19A4042D1B039501252D05DB02DB0A4B
:100D4000C9022B43C90A29431E010901040F130FCD
:100D5000050121431701880B820391432D098C461D
:100D6000A90B1E438A039543B30B9A0396433F098D
:100D7000BA0B9403A74302962E467E430497B646C9
:100D80004E19D7190C460196544305977E43371BDD
:100D90007646BF1B3601B646BE0B36190096764620
:100DA000BC043719009C01D3641C00946400002F1C
:100DB00001D001263443029E049F754366467E435C
:100DC0000496760034196E0034190094029C019E3A
:100DD0001C196643751BAE46069465464519059C6D
:100DE00005956C43594375460891691A0191049E13
:100DF00001465143A41B0491611A009C0791E1062E
:100E000005D061090122114302E072E06EE0610940
:100E1000089D00272C0A2D066918049D7C412A0A8A
:100E20002D066918019D6241AC0DAD026D1854414B
:100E3000079A910D920255196141029A64465843EE
:100E40005443069B059A5A43121A131B9A0E9B0190
:100E50005B187A41010B0005C3185141220A200694
:100E600044195A419A4200D2491C01204002814251
:100E700003D315230226F64302E014230326F64388
:100E80002020C51AA9401746AF40DA400A43204641
:100E90000399D8400914731819055118039A384357
:100EA000D2075140AC4009D00122944006D3002221
:100EB000401C5141002C01D1400840001E4A934281
:100EC00012D3012203989206904207DB05204007C7
:100ED00009181A480143C012414004E003204007AA
:100EE0000818C10FC907002009B0F0BD0020F107A4
:100EF000FAE705180C464C4111486D42A04115D344
:100F000094181A465A410E48644290410ED301206B
:100F10004A004005824209D35A00824206D3594012
:100F2000C90F084AC90700201143DDE70020064920
:100F3000DAE700000000FF07FE070000FFFFFF7F69
:100F40000000E0FF0000F07F0000F87F0121C905EC
:100F50000123411842001B06D3185B0E0AD0C110B2
:100F60000722D206891840075242D14201D55200C9
:100F700089187047090208D50146002A03D0C10F1D
:100F8000C9070020704710467047420202D0002077
:100F900002497047072109050143F4E70000F87F83
:100FA000F0B5FF252D04C609C209FF2704462E40CF
:100FB0000137CB093E4348402A402B400746002AD0
:100FC0006BD0002B69D0AA4267D0AB4265D0002815
:100FD00000DA32460125ED0529432C43090220029F
:100FE000090AD21A4B0C7F24E31A434C000A7C44B2
:100FF000E35C7D242404121914145B00A2188842B7
:1010000001D3521C00E0400049420C465C432411CD
:101010005C43DB016415E318040A5C43C502200D40
:101020000C4644436419250A5D432303EC0C0D462A
:10103000654300030019EB184C42A34201D35B182F
:10104000401CD4052018002B07D05B00C91804D31E
:10105000401C002901D1400840003F2189048A42F8
:1010600009D3002A08DC1106090F04D0032149071F
:101070004018C00FC007F0BD0122410012068918B8
:101080007F2252069142F6D205214907C84201D576
:101090009010F0BDFF20C005F0BD002F00DA3246F1
:1010A0001648AA4207D2AB4205D21902090E17D040
:1010B000F80FC007F0BDFF2563002D06AB42F9D83D
:1010C0004900A942F6D8AB4201D1A942F2D0A942C7
:1010D00001D1002101E061004908D0050843F0BDBD
:1010E0001102090EFBD0FF200243D005F0BD0A46D5
:1010F0000146104654E70000344C00000000C07F59
:1011000010B501469E240002CA15A307002A02D08A
:101110001843002A04DBA21A002A0CDDD04010BDBF
:101120001206120E01D140004008A21A03D4D0408A
:1011300040420028F3DDFF2248001206904201D908
:10114000002010BDC817C043584010BD0102C21591
:1011500004D00123DB071943002A0ADB9E239A1AD5
:1011600002D40846D0407047FF2241001206914247
:1011700001D900207047C017C04370471F22030CDD
:1011800002D10F2200041CD0030E01D10002083A44
:10119000030F01D10001121F830F01D18000921EA5
:1011A000002801DB4000521ED205511802125118CE
:1011B0001922904004D3491C002801D14908490054
:1011C00008467047C10FC90700D04042012292076C
:1011D0001143D3E701218907D0E7000010B5FF22B2
:1011E000C30D134009D05A4007D0914205DA5C4242
:1011F000A14202DDC905081810BDC40FE407002B89
:1012000006D0002A06D0002902DBFF20C0050443D7
:10121000204610BD4102FCD0004810BD0000C07F38
:1012200010B500F039F8006810BD10B5044600F0A4
:1012300033F8046010BD000070B505464800440D49
:10124000124B0020002C0AD0634008D09A4206DAE4
:101250006642B24203DD12054019514170BD002CB7
:1012600008D0002B09D0C90FC907002AF6DB084AAD
:10127000114370BDC90FC90770BD28460A0310434A
:1012800002D00020034970BD284670BDFF07000052
:101290000000F07F0000F87F004870472001002028
:1012A000F8B5224C4E00069DA6420AD8A64201D1AE
:1012B000002806D15E00A64203D8A6420AD1002A21
:1012C00008D00D24240425422CD02946002000F00B
:1012D000DAF8F8BD0C461C430CD4994202D0EFF367
:1012E0000080F8BD904202D0EFF30080F8BDEFF32C
:1012F0000080F8BD09242407E5008B4206D0EFF3F7
:101300000080A043591A06D2284304E0101A05D3DE
:10131000EFF30080A04380F30088F8BDEFF3008076
:10132000A043F1E7009500F0C5F8F8BD0000E0FF2C
:10133000F0B53D4B02460C461C400020002C63D00B
:101340003A4D8B4366D000296BDB0B0D1D05A9437D
:1013500001252D0529430124FD33E34001D39218D3
:101360004941FF3381339C468B02940D0121234375
:1013700089074C42920200271B198C105D1A04D475
:101380002D1B02D42B466500491992185B41640855
:10139000F4D15C1A08D40125ED07EE1755197441F4
:1013A00002D42A462346491C94185B410122920725
:1013B0001D46E61B8D4106D4B61A854103D42B4643
:1013C000550034467F1924195B415208802AEFD119
:1013D000234300D0022338460A22D04001D3012201
:1013E00013438A0510436246890A12058918002BA7
:1013F00009D00122D34002D30022401C5141002BCE
:1014000001D140084000F0BD0B03134307D0C90FC2
:10141000C907F0BD0803104303D1002901DB1046C2
:10142000F0BD00202946F0BD0000F07F0000F87FED
:1014300000487047200100207546FFF7F9FFAE46CF
:10144000050069465346C008C000854618B020B55F
:10145000FEF7A2FE60BC00274908B6460026C0C5BC
:10146000C0C5C0C5C0C5C0C5C0C5C0C5C0C5403D5C
:1014700049008D46704710B50446C046C046204618
:10148000FEF769FE10BDC80212D54803400F0028C0
:1014900004D0C803C043012188407047EFF30080A7
:1014A0000001000903210907084380F30088704701
:1014B0000020704710B500200249029A00F004F89D
:1014C00010BD00000000F87F10B50C461107090F91
:1014D000092904D00A290AD008290CD104E01146B0
:1014E0000820FFF7D0FF06E0510606D501E05106BF
:1014F00001D50120C007214610BDD10607D5010145
:101500000909CC084907000E0006044309E0410F11
:1015100020024907000A0143200E00061D22D14186
:1015200001430846E7E7000001491820ABBEFEE78B
:10153000260002007047000008B5094900238B60AF
:10154000FF22CB6022320A6006220A6102466B4605
:10155000044800F042F8002801D072B6FEE708BD4A
:1015600078000020AC0000201CB5694608700A48CD
:101570000021FF22223281600260C16001210161ED
:10158000014601AB6A46054800F027F8002801D063
:1015900072B6FEE71CBD000078000020AC00002001
:1015A00010B5024800F06FF910BD0000AC0000203B
:1015B00072B6FEE72022125C012A08D0022A06D069
:1015C000416A012292041143416201207047006880
:1015D00042690A43426100207047F0B52024255C2F
:1015E0000468A468012D05D0022D03D0416A0122B0
:1015F00092045BE02501AD0F01D1E50053D5A401B4
:10160000A40F022C03D9416A0122D2054EE0012524
:101610002E46A6401E608B68002B14D0CE68334344
:101620004E68F60033432601FF3607688136BB510A
:1016300023011C46FF3407680E6985343E51097D3D
:10164000012904D009E00B88CE685B05EAE7016850
:101650000E59FF2701373E430E51D47911792406E4
:1016600021439479567924043602344321431C469D
:10167000FF3406688D343151D47811782406214323
:101680009478527824041202144321431A46FF32FC
:1016900004688932A1500068FF338133C15829435F
:1016A000C1500020F0BD416A012252051143416240
:1016B0000120F0BD30B52022125C0368012A08D059
:1016C000022A06D0416A012292041143416201209C
:1016D00030BDDA1DFF32FA32146801200443146071
:1016E0000C7DE406E40EA040D4698443D461CC6947
:1016F000002C1AD1D4688443D4608C898D8824044A
:10170000ADB22C434D69ED00ED18FF35FF350235C4
:101710002C640C890D882404ADB22C434D69ED0076
:10172000ED18FF35FF3502356C64CC69012C1AD1F8
:10173000D4680443D4600C888D882404ADB22C4353
:101740004D69ED00ED18FF35FF3502352C640C892D
:101750008D892404ADB22C434D69ED00EB18FF33A5
:10176000FF3302335C648B69002B53680BD0034357
:1017700053600B69002B536907D003435361096A17
:10178000012904D006E08343F2E78343F6E7D169F9
:101790000143D1611068400840001060002030BD56
:1017A0007047F0B52024245C012C06D0022C04D014
:1017B000416A0122920411435BE00124640505683B
:1017C000002952D02D69AD0751D00C012546FF35B7
:1017D0000668B135765904273E409660066876590A
:1017E0004AD0F60856600668755902263540D5601D
:1017F0002546FF350668B53576593607360F16612A
:10180000066876593604360E9661066875592D0CB1
:1018100055612246FF320568B932AD581D70056822
:10182000AD582D0A5D700568AD582D0C9D7005688A
:10183000AA58FF34120EDA700268BD3412591A71B8
:1018400002681259120A5A7102681259120C9A71DE
:1018500002681259120EDA712022006800290ED097
:101860000169114301610020F0BDED68ABE7416AF9
:10187000214341620120F0BD760D1660B3E7C168D7
:101880001143C160EFE7F0B50546006885B04669D1
:101890000024416801918768C16803910169029140
:1018A00081690091F10748D0F90714D001218160C6
:1018B000B80703D5284600F0FDF90CE0780702D5FB
:1018C0000124E40207E0380702D50124240302E0E2
:1018D000284600F0EEF9F80517D5FF2029680130F9
:1018E0008860B80503D5284600F0E6F90DE07805D4
:1018F00002D50120400303E0380503D50120800311
:10190000044302E0284600F0D6F9F80315D501207B
:10191000296800048860B90303D5284600F0CEF991
:101920000BE0790302D50120C00301E0390301D5A2
:10193000044302E0284600F0C0F9300710270028D1
:1019400006DA0398C00603D5780104432868C76007
:10195000700708D50398000705D529680820C860D6
:10196000284600F04DF9B00706D52868C068800702
:1019700002D0284600F046F9700607D50298C00646
:1019800004D501208002044328680761B00608D509
:101990000298000705D5296808200861284600F04C
:1019A00059F9F00606D528680069800702D0284654
:1019B00000F051F9B00307D50198C00604D5286896
:1019C0004760284600F048F9F00308D50198000761
:1019D00005D5296808204860284600F070F93004D1
:1019E0003CD5019841070420002935DAF10504D5DA
:1019F0000099C90701D001210C43B10504D5009914
:101A0000890701D502210C43710503D500994907C7
:101A100000D5044331051FD500994906490F1BD055
:101A2000009A70210A40402A11D006DC102A09D001
:101A3000202A09D0302A0BD108E0502A18D0602A79
:101A400006D117E0082202E03C4301E020221443C3
:101A50002A6893698B43936129684860002C05D0FC
:101A6000686A204368622846FFF79AFE05B0F0BD19
:101A70008022ECE7FF220132E9E7F8B5040005D047
:101A8000254620352878002802D004E00120F8BD42
:101A9000204600F07BF820680168012211430160B4
:101AA00000F0ECF9012706467F0404E000F0E6F9B7
:101AB000801B0A2811D820684068C007F6D020682B
:101AC000016802229143016000F0D8F906460AE05D
:101AD00000F0D4F9801B0A2805D9606A3843606297
:101AE00005202870D2E7206840688007F0D4217E66
:101AF0008020012921680A683BD082430A60617E08
:101B00004020012921680A6835D082430A60A17EFD
:101B10002020012921680A682FD082430A60E07ED4
:101B2000102101282068026829D00A430260207F22
:101B3000082101282068026823D08A430260617F5F
:101B40000420012921680A681DD082430A60E168E7
:101B5000A068626908432169114308436168491E0E
:101B600008432168C86100206062012028700020BD
:101B7000F8BD0243C2E70243C8E70243CEE78A4307
:101B8000D4E70A43DAE70243E0E7000010B586B085
:101B9000044614216846FEF7F4FB17492068884282
:101BA00027D11648C269012149060A43C261C269A8
:101BB0000A400592426909120A434261406908409D
:101BC00005900320C00200900220019000200290A6
:101BD000032003900420049009206946C00600F009
:101BE00081F8002211461E2000F0CEFB1E2000F0DE
:101BF000BFFB06B010BD00000064004000100240B2
:101C0000704700001CB56B46104A0021FFF7C9FD64
:101C100000280BD16846027801210D48C12A12D054
:101C200005DC012A09D0B12A00D181701CBDC22A6D
:101C300001D0C32AFAD101701CBD054816300078C6
:101C4000FFF792FC1CBD0170C1701CBD900000200C
:101C50003800002070477047704770B5054604464D
:101C600020352878012805D0606A0121C90408437D
:101C7000606216E002202870206801684908490067
:101C8000016000F0FBF806460DE000F0F7F8801B5D
:101C90000A2808D9606A01214904084360620520C6
:101CA0002870012070BD20684068C007EDD16062D7
:101CB00070BD7047704770477047704770477047F6
:101CC00070B5044600F0DAF80546601C02D00448FE
:101CD0000078241800F0D2F8401BA042FAD370BD5F
:101CE00058000020F8B5002303240125B5E02E4656
:101CF0009E40B44632407CD00E79B607B60F012E16
:101D000001D0022E17D186682746B6465E00B7403E
:101D100000967646BE43B646CF68009EB7407646EC
:101D20003743876046686746BE430F79FF06FF0F5B
:101D30009F40374347600E79F643B6070ED0C6681A
:101D40002746B4465E00B646B7406646BE43B44634
:101D50008F687646B74066463743C7600E79B60748
:101D6000B60F022E14D1DE08B60036180096366A79
:101D70005F07B446FE0E0F27B646B7406646BE4321
:101D8000B4460F697646B74066463743009E3762D1
:101D900006682746B4465E00B646B7406646BE4370
:101DA0000F79B446BF07BF0F7646B7406646374344
:101DB00007604E68B603B60F4ED02B4FBE692E4358
:101DC000BE61BE699F08F607F60F284EBF00BE1918
:101DD0000096B6680F27B4469E07360FB646B74042
:101DE0006646BE430927FF06B446B84202D1002723
:101DF0000BE031E01E4FB84201D1012705E01D4F35
:101E0000B84201D1022700E005277646B740664672
:101E10003743009EB760184E36684F689643FF03FD
:101E200000D51643144F3E607E684F689643BF034B
:101E300000D51643104F7E60BE684F689643FF0280
:101E400000D516430C4FBE60FE684F689643BF0234
:101E500000D51643084AD6605B1C0A681646DE4069
:101E600000D044E7F8BD000000100240000001402F
:101E70000004004800080048000401400148806850
:101E8000704700005800002070B502464032537879
:101E9000202B1CD11378012B19D00123137024247B
:101EA0005470046825689D432560046825681E03F6
:101EB000B5432560046825680D4325600068016806
:101EC00019430160202050700020107070BD022066
:101ED00070BD70B5024640325378202B1BD1137869
:101EE000012B18D0012414702423537003681D683B
:101EF000A5431D6005682B680F263602B34309020F
:101F00001943296000680168214301602020507056
:101F10000020107070BD022070BD000070B504007C
:101F200006D02546403568780026002802D005E016
:101F3000012070BD2E70204600F09AF924206870B0
:101F4000206801684908490001600F21606809069E
:101F500088432168086121688A680120C0038243A0
:101F60008A60E1680129A16808D021229202114308
:101F700022689160E168022902D005E00143F7E799
:101F800001212268C902516021684A680F4B1A4337
:101F90004A602168CA688243CA606169206908434F
:101FA000A169090208432168C860216AE069084301
:101FB000216808602068016801221143016066649D
:101FC000202068702663AE70002070BD0080000283
:101FD000FFB5054604464035687883B0202875D1A2
:101FE0000C98002814D00D98002811D028780128CA
:101FF0006CD001202870FFF741FF074601220090B6
:102000001923D103204600F001FE002874D103E01B
:102010000120400260646FE0222068704020A870B8
:10202000002666640C9860620D98608566630E9861
:102030000090019704A90EC9204600F073FD002806
:1020400001D02E7058E0618D3448FF2905D9FF2258
:10205000228501231B06009006E0618D21850090FA
:10206000208D0123C2B25B062046049900F0BAFD20
:1020700000970022042120460E9B00F0C7FD002897
:102080003AD12068406A616A0870606A401C6062E8
:10209000208D401E81B22185608D401E6085608D3F
:1020A00000281FD000291DD1009700228021204642
:1020B0000E9B00F0ABFD00281ED1608DFF2806D9D5
:1020C000FF22228501231B06009607E024E0608D95
:1020D00020850096208D0123C2B25B06204604991C
:1020E00000F080FD608D0028C2D13A4620460E994E
:1020F00000F0B3FD002802D0012007B0F0BD206839
:102100002021C16120684268054B1A404260697015
:10211000AE702E700020F0E70220EEE70024008071
:1021200000E800FEFFB5054604464035687883B0F8
:10213000202872D10C98002814D00D98002811D0B6
:102140002878012869D001202870FFF797FE0746FC
:10215000012200901923D103204600F057FD0028EA
:1021600071D103E00120400260646CE021206870BE
:102170004020A870002666640C9860620D98608507
:1021800066630E980090019704A90EC9204600F0DE
:10219000F9FC002801D02E7055E0608DFF2805D98C
:1021A000FF22228501231B06009606E0608D208514
:1021B0000096208D0123C2B25B062046049900F0F0
:1021C00011FD3A4620460E9900F06DFD00283AD1E7
:1021D000606A216800788862606A401C6062608D75
:1021E000401E6085208D401E80B22085618D0029B3
:1021F0001FD000281DD100970022802120460E9B71
:1022000000F004FD00281ED1608DFF2806D9FF22B2
:10221000228501231B06009607E024E0608D2085BF
:102220000096208D0123C2B25B062046049900F07F
:10223000D9FC608D0028C4D13A4620460E9900F0A2
:102240000CFD002802D0012007B0F0BD206820213D
:10225000C16120684268054B1A4042606970AE70E7
:102260002E700020F0E70220EEE7000000E800FEFC
:1022700010B586B0044614216846FEF782F813496B
:102280002068884220D1124C61690120400401433A
:1022900061616169014003200591400200901220B4
:1022A0000190002002900320039004200490092054
:1022B0006946C006FFF716FDE169012040050143AC
:1022C000E161E1690140059106B010BD0054004094
:1022D00000100240024881680278891881607047C6
:1022E0005800002010B50648016810221143016013
:1022F000032000F007F800F027F8002010BD0000D0
:102300000020024070B504460D4D7D202978C000A4
:10231000FEF739F801460B480068FEF734F800F084
:1023200093FB002809D1042C07D200222146401E2D
:1023300000F02AF800206C6070BD012070BD000024
:10234000580000206400002008B508488169012277
:1023500011438161816911400091C26901040A43FE
:10236000C261C0690840009008BD00000010024032
:10237000002805DBC106C90E01208840014908601C
:102380007047000000E100E010B500F083FE10BDD2
:10239000F8B5044600683E4DC00352D5E8690026F2
:1023A000C00007D4E96928040143E961E9690140F3
:1023B0000126009137480168C90510D401688215CB
:1023C00011430160FFF75AFD074604E0FFF756FD91
:1023D000C01B642824D82F480068C005F6D5286A99
:1023E00003273F02384020D06168394081421CD029
:1023F000286A2A6AB843012109040A432A622A6A20
:102400008A432A622862C0070FD0FFF737FD009089
:1024100008E0FFF733FD0099411A1F48814201D9B6
:102420000320F8BD286A8007F3D5286A6168B8439D
:1024300008432862002E04D0E96901200007814387
:10244000E9612078C00705D0286BA168800880006A
:10245000084328632078800605D5286B102188431F
:10246000E168084328632068800305D5286B802134
:1024700088436169084328632088400505D5286B97
:10248000402188432169084328630020F8BD0000EB
:10249000001002400070004088130000F8B50F469D
:1024A00006005FD03D4D2868C007C00FB84209D272
:1024B000286840084000384328602868C007C00FDB
:1024C000B8424FD13068364C81070CD5400704D54F
:1024D000606807210902084360606068F021884352
:1024E000B168084360603078C0072CD0706801285C
:1024F00010D0022811D0032812D0216889070029A2
:1025000030DA61688908890001436160FFF7B6FC31
:10251000009011E021688903F1E721688901EEE765
:10252000616BC903EBE7FFF7A9FC0099411A1D484D
:10253000814201D90320F8BD60680C210840716810
:1025400089008842EFD12868C007C00FB8420BD974
:10255000286840084000384328602868C007C00F3A
:10256000B84201D00120F8BD3078400706D5606838
:10257000072109028843F1680843606000F018F8F9
:102580006168094A0906090F515CC840074908609B
:102590000320FFF7B7FE0020F8BD00000020024036
:1025A0000010024088130000965B000864000020C1
:1025B00030B519A30FCB89B06C460FC41AA30FCB4B
:1025C0000FC41D4A51680C200B4603401B48042BC6
:1025D00005D01B4D082B04D00C2B00D1284609B088
:1025E00030BD8B021B0F6C46E45CD26A04AB120751
:1025F000120FC9039A5C890F022901D0032901D067
:10260000002301E0002328460021FDF7E5FD2146D7
:1026100000F012FDE3E700000203040506070809C5
:102620000A0B0C0D0E0F101001020304050607081B
:10263000090A0B0C0D0E0F100010024000127A0058
:10264000006CDC02FEB5040070D02078F94EFA4D23
:10265000C00748D068680007800F01281FD068684D
:102660000007800F022804D16868C003800F022889
:1026700015D06168012919D001208004002901D0FA
:10268000052917D02968B143296029688143296049
:10269000606800281BD0FFF7F1FB074613E02868AD
:1026A000800320D560680028CED01CE02868304325
:1026B0002860EDE7296801432960F7E7FFF7DEFBB3
:1026C000C01B642870D828688003F7D50BE0FFF79B
:1026D000D5FB074604E0FFF7D1FBC01B6428F1D807
:1026E00028688003F7D4207880073FD56868000702
:1026F000800F14D068680007800F022804D1686832
:10270000C003800F01280AD0E068002828681ED086
:10271000012108432860FFF7B1FB07460CE0286859
:1027200080070CD5E068012800D108E080E1FFF7C0
:10273000A5FBC01B0228C5D828688007F7D52868E4
:10274000F82188432169C900084328600EE0400849
:1027500040002860FFF792FB074604E0FFF78EFB7E
:10276000C01B0228AED828688007F7D4207800075D
:1027700023D5E0690028686A0FD001210843686208
:10278000FFF77CFB074604E0FFF778FBC01B02283D
:1027900098D8686A8007F7D50FE040084000686263
:1027A000FFF76CFB074605E0C3E0FFF767FBC01BC4
:1027B000022887D8686A8007F7D420780427400762
:1027C000002861DA00200190E869C00008D4E969B6
:1027D000B8060143E961E9690140012000910190D7
:1027E00096480168C90511D401688215114301603A
:1027F000FFF744FB009005E0FFF740FB0099401A0B
:10280000642898D88D480068C005F5D5A0680128CF
:102810000AD0002801D0052811D0286A40084000BD
:102820002862286AB84302E0286A01210843286226
:10283000A068002812D0FFF721FB00900AE0286A68
:1028400038432862F0E7FFF719FB0099411A7C48EA
:1028500081426ED8286A8007F5D50DE0FFF70EFBA0
:10286000009006E0FFF70AFB0099411A7448814284
:102870005FD8286A8007F5D40198002804D0E96958
:10288000012000078143E9612078C00635D56069E1
:1028900001280CD0401D686B24D038436863686BF6
:1028A000400840006863FFF7E9FA074622E0686BDA
:1028B00038436863686B012108436863FFF7DEFAF9
:1028C000074604E0FFF7DAFAC01B022831D8686B2C
:1028D0008007F7D5686BF8218843A169C9000843D0
:1028E00068630AE0B8436863F4E7FFF7C7FAC01B00
:1028F00002281ED8686B8007F7D42078800637D569
:1029000068680007800F032814D068680007800FEC
:10291000022804D16868C003800F03280AD0206A07
:102920000028686B16D030436863FFF7A7FA0646A5
:102930000CE062E0686BC0031AD5206A012877D1E9
:1029400016E0FFF79BFA801B022856D8686BC0037D
:10295000F7D50DE0B0436863FFF790FA064604E050
:10296000FFF78CFA801B022847D8686BC003F7D4A6
:10297000606A002866D069680907890F022942D079
:10298000012636060228286805D0B0432860FFF7E4
:1029900075FA044633E0B0432860FFF76FFA074644
:1029A00004E0FFF76BFAC01B022826D828688001D4
:1029B000F7D4E86A216B000900010843E862A16AC4
:1029C000E06A084369687B22D20391430843686048
:1029D000286830432860FFF751FA044604E0FFF707
:1029E0004DFA001B022808D828688001F7D529E095
:1029F000FFF744FA001B022801D90320FEBD286816
:102A00008001F5D41EE00128F8D06868E96A032245
:102A1000D203A36A02409A420AD10907226B090F26
:102A2000914205D10F2189040840E16A884209D00A
:102A30000120FEBD000001000010024000700040B7
:102A4000881300000020F4E7094910B5401E8842B1
:102A500001D9012010BD074C60610321081F00F05F
:102A600019FB0020A06107202061002010BD00009C
:102A7000FFFFFF0000E000E0FEE701688A69D24343
:102A8000920701D400228A6200688169C943C9079C
:102A900003D081690122114381617047F7B5044673
:102AA00000680F468169C943C90636D44168890167
:102AB00004D4416801229203114341600026254657
:102AC000403520688069C043800612D5781CF8D054
:102AD000FFF7D4F90299401AB84201D8002FF0D17B
:102AE000616C2020014361646870AE702E7001201B
:102AF000FEBD21681020C86120682027C7612046DC
:102B0000FFF7BBFF20684168054A11404160606CD7
:102B10000421084360646F70E7E70020FEBD0000F9
:102B200000E800FEF8B50446164615481D46DAB220
:102B30000090079F0023204600F054F83A462046B4
:102B4000069900F0B0F8002818D12846F5B20128FF
:102B500009D02168300A88623A462046069900F07A
:102B6000A2F800280AD1206885620097002240213F
:102B70002046069B00F04AF8002800D00120F8BD4E
:102B800000200080F8B50446164615481D46DAB206
:102B9000C3020090079F204600F024F83A462046E2
:102BA000069900F080F8002818D12846F5B20128CF
:102BB00009D02168300A88623A462046069900F01A
:102BC00072F800280AD120688562009700228021CF
:102BD0002046069B00F01AF8002800D00120F8BD1E
:102BE00000200080F0B50668059C7568064F600DF2
:102BF000384385438805800D11040843184320435A
:102C000005437560F0BD0000FF63FF03F8B51D4686
:102C100017460E46044609E0681C07D0FFF72EF958
:102C20000699401AA8420BD8002D09D02068816966
:102C3000304688430FD00020B842EDD00020F8BDC8
:102C4000616C202001436164403460700020A070FA
:102C500020700120F8BD0120EEE770B516460D4644
:102C600004460FE0324629462046FFF717FF0028AA
:102C700001D0012070BDFFF701F9801BA84208D8E0
:102C8000002D06D020688069C0438006EAD4002069
:102C900070BD616C2020014361644034607000208D
:102CA000A0702070E5E770B516460D46044611E0A9
:102CB000324629462046FFF7F1FE002801D00120C8
:102CC00070BD681C06D0FFF7D9F8801BA84208D851
:102CD000002D06D020688069C0438007E8D400201A
:102CE00070BD616C2020014361644034607000203D
:102CF000A0702070E3E7000070B5174A111F081F8D
:102D000001F0E8F90028F8D1134C0C3C6068FEF79C
:102D1000F7F900042546000E103528706068FEF7AC
:102D2000EFF96870A068FEF7EBF90004000EA870D8
:102D3000A068FEF7E5F9E870E068FEF7E1F9000445
:102D4000000E2871E068FEF7DBF96871E078002872
:102D500001D00120607070BD4400002010B51F48F4
:102D6000FFF7DCF86420FEF7ABFF80216B2000F05A
:102D7000A1F86420FEF7A4FF00216B2000F09AF870
:102D8000032000F05EF8002000F054F8322000F03C
:102D900079F80021382000F08DF800216A2000F039
:102DA00089F80021232000F085F88021372000F0E9
:102DB00081F8752000F014F8682801D0012010BDBA
:102DC00001216B2000F076F800216C2000F072F8F1
:102DD000322000F057F8002010BD0000D400002081
:102DE0001FB5002269460A73074B012203A96C46EE
:102DF0000EC413460246D1210448FFF7E9F869469C
:102E0000087B04B010BD0000FF0F0000D4000020BC
:102E10000EB5064B00920293019102460123D12187
:102E20000348FFF7D5F800200EBD0000FF0F00009B
:102E3000D4000020C00610B5010E1C2000F03AF8A6
:102E400010BDC00610B5010E1B2000F033F810BDF8
:102E500010B5BC2801D3012110E0622801D3022162
:102E60000CE02A2801D3032108E0142801D304210F
:102E700004E00A2801D3052100E006211A2000F011
:102E800019F810BD10B504467D20C000844201D958
:102E9000044602E0042C00D204242146FDF773FA14
:102EA000401EC1B2192000F005F86008FFF7D0FFFE
:102EB00010BD000003B583B0074B0122029304A9A3
:102EC0000192134600910246D0210448FFF72AF9E7
:102ED000002005B000BD0000FF0F0000D40000205E
:102EE0000EB5064B00920293019102460123D021B8
:102EF0000348FFF717F900200EBD0000FF0F000088
:102F0000D400002010B50E480C4901600821416032
:102F1000002101228160920402610522C160120534
:102F20004261017641768176C17601774177FEF77D
:102F3000A4FD002801D0FEF73BFB10BD006400405B
:102F4000AC00002008B505484269012149040A4344
:102F5000426140690840009008BD00000010024036
:102F600010B5134811490160124941600021816088
:102F70000161416181610122C161C2600162FEF7AC
:102F8000CDFF002801D0FEF713FB00210848FEF713
:102F90007BFF002801D0FEF70BFB00210448FEF761
:102FA00098FF002801D0FEF703FB10BD005400403D
:102FB000D40000200B020000FEE77047704710B5F8
:102FC000FFF788F910BD10B598B034216846FDF7B9
:102FD000D8F900240D940E940F94182111A8109480
:102FE000FDF7CFF9222000900120039008901020D7
:102FF000099404906846FFF725FB002801D072B6BB
:10300000FEE707200D9003200E900F9401211094ED
:103010000DA8FFF743FA002801D072B6FEE7202082
:103020001190149411A8FFF7B3F9002801D072B6DB
:10303000FEE718B010BD7047F8B5040C8BB22646F9
:1030400082B25E430D0C1046370C5843360480198B
:103050000021794116466E43370C360480197941B8
:1030600026466E438919F8BD4900CA020243100082
:1030700000D004204A0D01D001221043044A490D1A
:10308000914201D102210843012800D10520704757
:10309000FF0700008307FF22DB0E9A408907090E15
:1030A0009940002808DB830809489B001B18186812
:1030B00090430843186070470007000F08388308E2
:1030C00004489B001B18D86990430843D861704797
:1030D00000E400E000ED00E0F8B504464F1EC80033
:1030E0000838211815461E46086849683A460623DE
:1030F0009A4310D02A463346FDF704FE3A46D200E2
:10310000083AA3181A687F1E5B68FDF7A7FB062222
:103110003B469343EED1022F23D0042F11D0062F2C
:103120002FD12A463346FDF7EDFDE36AA26AFDF78B
:1031300095FB2A463346FDF7E5FD636A226AFDF7F3
:103140008DFB2A463346FDF7DDFDE369A269FDF7F5
:1031500085FB2A463346FDF7D5FD63692269FDF7F5
:103160007DFB2A463346FDF7CDFDE368A268FDF7F7
:1031700075FB2A463346FDF7C5FD63682268FDF7F7
:103180006DFBF8BD10B50122FEF756F810BD10B565
:10319000FDF764FB10BD002210B513461046114622
:1031A000FDF78CFB10BD0000034A10B5002011078D
:1031B000FEF742F810BD000001FDFFFFF0B5044628
:1031C0004F008E488FB07F080D460D91874228DB57
:1031D0004042381820430CD08948874203DC87429C
:1031E00018D1002C16D020462946FFF7CBFF0FB090
:1031F000F0BD844A844B20462946FDF783FD0746EF
:103200000E46824A824B20462946FDF77BFD3A4610
:10321000334649E00120FEF708F8FFF7BCFF0FB086
:10322000F0BD7C48874243DAF920800587420BDAFB
:1032300020462946FFF718FF042801D1FFF7B4FF05
:10324000204629460FB0F0BD22462B46104629469F
:10325000FDF758FD064602466F480F460B4606210D
:103260007844FFF739FF32463B46FDF74BFD0690A9
:103270006A48079132463B4604217844FFF72CFF09
:1032800032463B46FDF73EFD00225C4BFDF7E6FA79
:1032900002460B4607990698FDF710FB22462B467F
:1032A000FDF730FD22462B46FDF7D8FA0FB0F0BDF2
:1032B0002046524C6900490800222346FDF7E6FAF1
:1032C0000022D243FDF7B8FF0546024654480E4699
:1032D0000B4606217844FFF7FFFE2A463346FDF7EA
:1032E00011FD06904F4807912A4633460421784441
:1032F000FFF7F2FE2A463346FDF704FD002223467F
:10330000FDF7ACFA059104902846314601F0C4FC63
:10331000089045480C46874219DB059B049A07999B
:103320000698FDF7CBFA02460B4621460898FDF7B2
:10333000E9FC2346089AFDF791FA0122FDF77CFF8C
:10334000304A314BFDF797FA304A314B4AE00027BB
:103350003A460B460898FDF781FA3A4623460A9109
:103360000E9010461946FDF7CDFC2A463346FDF770
:103370008DFA0A9B0E9AFDF7A1FA05460E46059BAB
:10338000049A07990698FDF799FA00910490012292
:1033900028463146FDF750FF1A4A1B4BFDF776FAD7
:1033A0000E460546012221460898FDF745FF009B81
:1033B000049AFDF7A7FC2A463346FDF75CFA05465A
:1033C0000E46012238462146FDF736FF0F4C174FB7
:1033D00022463B46FDF75AFA2A463346FDF756FA8F
:1033E00022463B46FDF752FA0D9A002A00DD5DE7C2
:1033F0000122D20751400FB0F0BD00000000F03FA5
:103400000000F07F075C143326A6913C182D44542D
:10341000FB21F93F0000E03F042A00001A2A0000C7
:1034200090290000A62900003333EF3FFB21E93F3C
:10343000F0B589B004460D4648000691724940082F
:10344000884215DB7149884203DC884207D1002C91
:1034500005D020462946FFF795FE09B0F0BD6C481F
:10346000002D02DD6B4909B0F0BD6B4909B0F0BD1C
:103470006A49884211DA6A4988420BDA20462946AD
:10348000FFF7F2FD042801D1FFF78EFE2046294602
:1034900009B0F0BD0026F6435DE06D0061496D089E
:1034A000884232DA6049884219DA0026012332461E
:1034B0009B0720462946FDF7D1F9074601910122D5
:1034C00020462946FDF7B8FE0022584BFDF7D3F9F8
:1034D0003A46019BFDF7F2F904460D463BE0012612
:1034E0000022524B20462946FDF7B8F907460091C5
:1034F00000224E4B20462946FDF7BDF93A46009B77
:10350000FDF7DCF904460D4625E04949884219DA01
:1035100002260022474B20462946FDF7F3FB0022F6
:10352000424BFDF79BF9074602910022414B204692
:103530002946FDF7A0F93A46029BFDF7BFF904467C
:103540000D4608E0032622462B4600203A49FDF7A7
:10355000B5F904460D4622462B4610461946FDF79E
:10356000D1FB07460B4602460191FDF7CBFB024615
:10357000029032480B46039106217844FFF7ACFDD8
:103580003A46019BFDF7BEFB00902D4801910521B5
:103590007844039B029AFFF79FFD039B029AFDF775
:1035A000B1FB02460B4601990098002E0BDAFDF79D
:1035B00055F922462B46FDF7A5FB22462B46FDF783
:1035C00065F909B0F0BDFDF749F922462B46FDF734
:1035D00099FB1C4AF6007A4493191A685B68FDF758
:1035E0004AF922462B46FDF746F9174A7A449319C1
:1035F0001A685B68FDF74AF9069A002AE1DA0122A7
:10360000D207514009B0F0BD000010440000F07F27
:10361000182D4454FB21F93FFB21F9BF0000DC3F8A
:103620000000203E0000F33F0000E63F0000F03FB6
:10363000008003400000F83F0000F0BFA227000018
:1036400064270000FE260000C8260000F0B51FB465
:10365000039A029D53006E422E439446F40F5B087A
:103660004A00574E52081C438E46B44205D8474282
:103670000743FC0F1443B44205D92A466346FFF7BB
:1036800086FD05B0F0BD4F4E66442E430AD0CC0FE8
:103690006646B61702273E40264304464A4F144367
:1036A00004D00BE0FFF7C4FE05B0F0BD002EFBD048
:1036B000012EF9D0022E32D0032E34D01C462C43DA
:1036C0000BD03F4CA34216D1A2420AD10121890757
:1036D0008B438A43114603930DE0704600280FDBAD
:1036E00025E03A4D7D44002E0ED0012E10D0022E42
:1036F00015D0032E17D0A2421DD17046002816DA2D
:103700003148334905B0F0BD6968286805B0F0BD9F
:1037100001226968D2072868514005B0F0BD3846DB
:103720002C4905B0F0BD38462B4905B0F0BD264800
:103730002A4905B0F0BDD21A12153C2A02DD224DED
:10374000264C12E06346002B05DA3C23DA4202DA0B
:1037500000252C4609E0039B029AFDF7AFF84900CB
:103760004908FFF765FE05460C46002E12D0012ED3
:103770000DD01B4A1B4B022E2846214618D0FDF7C0
:103780007AF83A46134BFDF776F805B0F0BD012004
:10379000C0074440002213462846214601F0A0FA03
:1037A00002D10220FDF741FD2846214605B0F0BDBB
:1037B000FDF761F83A46074BFDF768F805B0F0BD34
:1037C0000000F07F000010C0182D4454682600004F
:1037D000FB21F9BFFB210940FB2109C0FB21F93F77
:1037E000075C143326A6A13C08B5002809D0202187
:1037F0006846017028214170302181703821C170E4
:1038000004E0A32204216846FCF794FD6A460421E3
:10381000024801F0E7F900F039FF08BD9E0A0000F8
:10382000FEB50446022069460870CA204870E320AD
:1038300088700920C8706A460421682001F0D2F916
:10384000A32069460870610607D5C02269464A7000
:10385000C8228A70C222CA7003E069464870887024
:10386000C870E605B10F07D0C42269460A71CC22A0
:103870004A71C6228A7103E06946087148718871ED
:10388000C871087248720A460A214D4801F0AAF927
:10389000A007D825002803D020206946087001E041
:1038A0006846057046486A4601210F3001F09AF9D2
:1038B000A00601D5012000E0002000F08BF8B00F39
:1038C00019D0E00508D5B221684601708B214170FE
:1038D000B62181709B2107E0B021684601708021EC
:1038E0004170B42181709021C17002463448042196
:1038F000401F01F077F93348E10721D0F8216A46EB
:103900001170012101F06EF9FA21072000F076FA1A
:10391000072000F045FA012000F05DFA642000F075
:1039200005FBFF20F53000F010FBC821264800F011
:1039300003FA282000F016FA0A2000F022FA05E027
:1039400069460D706A46012101F04CF9A00703D5C4
:10395000D9206946087001E0684605706A46012171
:103960001A4801F03FF9600701D5012000E000206E
:1039700000F050F8E00601D5012000E00020FFF73C
:1039800033FF0820124D2043688100F07FFE0020A5
:10399000A873600601D50620A873B00F02D0A87BDB
:1039A000801DA8731420044202D0A87B1030A87395
:1039B000A00702D0A87B001DA8730020FEBD000058
:1039C000A70A0000B008000009E3CA023D07000092
:1039D000680000200EB59723DB00002802D007A165
:1039E00007C901E008A207CA0292019100906A4645
:1039F0000921184601F0F6F80EBD0000B8AAB38DF3
:103A0000B4980D355D000000B8AAAAAAB088C3C555
:103A1000C700000008B5002809D0C0216846017021
:103A2000C2214170C4218170C621C17004E08B2283
:103A300004216846FCF77EFC6A460421024801F036
:103A4000D1F800F023FE08BD980A000010B501224D
:103A5000C82392020249034800F008FD10BD00008F
:103A6000A04F0008F60B0000FFB589B01646129D66
:103A70000024139A57480F462C80807B694600F03B
:103A800091FD002803D00020C0430DB0F0BD514887
:103A900014214089084243D06C462188A27849BA53
:103AA000090412021143E27811438C463160A18867
:103AB00049BA0B04A17909020B43E1790B43736006
:103AC00021891B1449BA0A04A17A5B4309020A43FB
:103AD000E17A0A43B260A189A47B49BA09042402AD
:103AE00021436C46E47B12142143F16009146646BD
:103AF00052434943361451187643F318F1225918AA
:103B000012068918344A1024914204D300F0BEFDF5
:103B100000202880B7E72988FF220132114329803D
:103B20004206694617D50A19537816781B023343A3
:103B30005BBA3B80D37896781B0233435BBA7B80B9
:103B4000537916791A02324352BABA802A88082366
:103B50001A432A80A41D1F4EC205920F1AD00A19BB
:103B6000537817781B023B43099F5BBA3B80D3789D
:103B700097781B023B43099F5BBA7B805379177987
:103B80001A023A43099B52BA9A802A8870231A4330
:103B90002A80A41D800718D00C19E07885098106B9
:103BA0006078AD01890EC00707D0C8084907490FE2
:103BB0003268491C002A00D090476078000704D57D
:103BC0007168002901D0A80988470C9800F052FAC2
:103BD00000205AE7680000200100000230B50446CA
:103BE00013A207CA85B06B46002507C3ED43C82C56
:103BF00016D82146C820FCF7C6FB401E020A6946BB
:103C00000A73487303AA02210C4800F0EBFF002856
:103C100006D16A460C210A4800F0E4FF002802D0D1
:103C2000284605B030BD074884810020F9E7000030
:103C3000FEF2ABC4AAF1DFDFBBAFDFDF160200008C
:103C4000C10A000068000020F0B5044685B034A029
:103C50000068029033A00068039033A0076833A087
:103C6000A607B60F02A905688A5D68460270E006DD
:103C7000830FCA5C684642702006820F895C6846E2
:103C8000817003A98E5D0671CB5C4371895C817183
:103C90006A460321264800F0A5FF0026F6430028C7
:103CA00036D1234801AA0321001D00F09BFF002804
:103CB0002ED16007012100970195002806DA684699
:103CC00002780A43027002790A430271A00606D5FF
:103CD000684642780A43427042790A434271E005DD
:103CE00006D5684682780A43827082790A438271D7
:103CF00011206A460321800100F074FF002807D1DB
:103D00000B4801AA03210B3000F06CFF002802D001
:103D1000304605B0F0BD074804810020F9E70000F7
:103D20004CCD6C000CC92C00365676002646660039
:103D3000260400006800002038B50C467D21C9002B
:103D4000FCF72BFB6043020E69460A7002144A70AE
:103D500002128A70C870FF206A4604215D3000F0AC
:103D600041FF38BD08B50521FCF70DFB020A694685
:103D70000A704870FF206A4602215B3000F032FF73
:103D800008BD08B50521FCF7FEFA020A69460A706B
:103D90004870FF206A460221593000F023FF08BD19
:103DA00008B500216A461170C10701D03021117099
:103DB000810704D511780C2211436A46117040071F
:103DC00003D51078032108431070FF2001214930EA
:103DD00000F008FF08BD08B500280CD0042800D961
:103DE00004206946401E0870FF206A4601215030B9
:103DF00000F0F8FE08BD0120F3E70000FEB505461F
:103E0000444E40077DD01920800181427ED808466B
:103E1000FDF7E0F94049FDF7C3F8074601A800F0B7
:103E200077FA68460079022806D004280DD00828C1
:103E30002CD010286AD132E00E213846FDF7CEF999
:103E4000FDF784F984B2354907E00D213846FDF7C6
:103E5000C5F9FDF77BF9324984B2384600F0B8FF66
:103E6000FDF774F9220A69460A7080B24C70020AA2
:103E70008A70C870E8070C4622D00A46FF2002214B
:103E8000D53000F0AFFE002840D111E00C213846BB
:103E9000FDF7A4F9FDF75AF984B22249DDE70B21B9
:103EA0003846FDF79BF9FDF751F984B21E49D4E776
:103EB000FF20A21C0221253000F094FE002825D10D
:103EC000A8070FD5FF206A460221D93000F08AFEEC
:103ED00000281BD1FF20A21C0221293000F082FE05
:103EE000002813D1680713D5FF206A460221DD3070
:103EF00000F078FE002809D1A21C0221FF202D30FD
:103F000000E003E000F06EFE002801D03046FEBD68
:103F10000020FEBDFFFFFFFF0000484300004046B9
:103F20000000C045000040450000C04408B5052120
:103F3000FCF729FA020A69460A704870FF206A46AF
:103F40000221DF3000F04EFE08BD08B50521FCF768
:103F50001AFA020A69460A704870FF206A4602216E
:103F6000DB3000F03FFE08BD10B5034600F00DF851
:103F70000446D81C00F009F8C2002243981D00F046
:103F800004F88001104380B210BD00214156002981
:103F900001DD00207047002901DA0420704701216B
:103FA0004156002901DD01207047002901DA052072
:103FB000704702214156002901DD02207047002987
:103FC00001DA062070470720704700008AB0FEF72C
:103FD00089F9FEF7F8FFFEF7B5FFFEF793FFFEF74E
:103FE000BFFF0025012005951F4901950395079501
:103FF00006900495009108900295099569461B4822
:10400000FDF758FB002801D072B6FEE71748FDF710
:1040100024FE002801D072B6FEE702211348FDF706
:10402000C9FA002801D072B6FEE7FEF797FE104CE1
:1040300000F01EF90028FBD10D4E1636207800281E
:1040400002D0FEF759FE25706078002803D0F07882
:10405000FDF78AFA6570A0780028EFD00448103088
:10406000FDF76AFAA570E9E720220000AC00002005
:104070003800002070470000F8B5410814480025BA
:1040800000794900002801D00020F8BD104C00261E
:10409000203CA07AF64300280FD00840277C2074EB
:1040A000884200D03546002909D0012000F0C4FD27
:1040B00000F0ECFA002808D027743046F8BD207DC7
:1040C000002800D0012000F0B7FD2846F8BD000010
:1040D00020000020F7B594B0074612A908A8019166
:1040E000009011AB04AA0FA90DA8FFF7BDFC002892
:1040F00002D0012017B0F0BD6846008CC0057CD509
:104100000498FDF75FF81D24E4432146FDF766F8A7
:1041100003900598FDF756F82146FDF75FF80190EA
:104120000698FDF74FF82146FDF758F800900798DC
:10413000FDF748F82146FDF751F80646012103989E
:10414000FDF74CF80B90009900F042FE0446032165
:104150008907019800F03CFE0546314600F038FE24
:10416000214600F0EFFDFCF7F1FEFFF727F83E4A8D
:104170003E4BFCF7C7FDFCF7B7F93860012100980A
:10418000FDF72CF81390009900F022FE0446284613
:10419000019900F01DFE214600F072FE7F21C90545
:1041A00000F0D0FDFCF7D2FE04460D4601990B98B5
:1041B00000F00EFE07463146139800F009FE39461E
:1041C00000F0C0FDFCF7C2FE22462B46FFF73EFA88
:1041D000254A264BFCF796FDFCF786F915990860F1
:1041E0003146084600F0F4FD00990746084600F005
:1041F000EFFD01990546084600E032E000F0E8FDD9
:1042000003990446084600F0E3FD214600F09AFDBC
:10421000294600F035FE394600F032FEFCF796FEE6
:1042200005460C463146039800F0D2FD064600993B
:10423000019800F0CDFD314600F084FD0121FCF72E
:10424000CDFFFCF783FE2A462346FFF7FFF9064A17
:10425000064BFCF757FDFCF747F91699086000205C
:1042600048E7022046E700006666666666A64C40A0
:1042700010B52548FDF752FE00F06AF8002801D07D
:104280000A2010BD782000F053FC0006000E01D07B
:10429000012010BD7820FFF7EFFE0006000E01D0D0
:1042A000022010BD642000F0FBFB0006000E01D0D0
:1042B000032010BDFFF7CAFB0006000E01D004204A
:1042C00010BD1248FFF750FEFFF7BEFC0006000EBF
:1042D00001D0052010BDFF207430FFF7A1FA0006C1
:1042E000000E01D0062010BD6420FFF777FC000609
:1042F000000E01D0072010BD012000F0FDFA0006DD
:10430000000EF8D0092010BDD40000202C000020A1
:104310000E494A7A002A08D0012A08D0022A10D071
:10432000032A10D00020C0437047022200E004227C
:104330000270C97C002902D01106C90D017000204D
:1043400070470822F4E71022F2E700000000002086
:10435000FEB580206946444C087020686A46807C1F
:104360000121FEF7BDFD0027FF43002874D1642022
:10437000FDF7A6FC00256846057020686A46807C2B
:104380000121FEF7ADFD002866D120686A46807DD8
:104390000621FEF73DFD00285ED169464879C978BF
:1043A000C007C907400F890F0843694649780126AD
:1043B000C907C90F0843002804D0012833D00228B8
:1043C0000FD049E020686A46C0780121FEF720FD41
:1043D000002841D1684600780007000F3CD004282F
:1043E00021D0E574FF20A072207260720021E0727B
:1043F000C943E1812074A074314626731A4E2036D9
:10440000B170F5706575304625750C210A38FBF7DB
:10441000B6FF357175717D20E584000100F0A4FAC6
:10442000002819D101E0E674DCE7022000F0CCF9A5
:10443000002811D12A2000F0FFFA00280CD13220E8
:1044400000F02EFB002807D1FFF716FE002803D14D
:1044500000F0ECF9002801D03846FEBD002000F045
:1044600067FB0020FEBD000000000020FFB5244FC8
:10447000064678798BB01546002838D10C9800286C
:1044800035D0002423E0301B102800DD102080B23E
:1044900001900C98019902190492204600F0A2FBA9
:1044A000002824D105AA2046019900F0C5F800286B
:1044B0001DD105A9019A0498FBF70FFF002803D02E
:1044C0000120C0430FB0F0BD0198201884B2B4425F
:1044D000D9D3290A68460A4C01734573203C2068E9
:1044E00003AA807E0221FEF7FBFC002802D00020F8
:1044F000C043E7E7012078710E98E0840020E1E7EF
:1045000020000020F8B5054628283CD80026244C79
:10451000002D0DD0012000F05DFA20206946012712
:104520000870012D15D0052D15D84F7005201BE002
:10453000002000F04FFA684606700721417020689D
:104540006A46807C0221FEF7CBFC00281BD1267531
:1045500023E04E70EAE7142D03D8022048700A20A9
:1045600002E003204870142000F066FA694648789B
:104570006A468001C01D487020680221807CFEF7D9
:10458000AFFC002802D00020C043F8BD0820A07274
:10459000267327750020FFF76FFD0020F8BD00008F
:1045A00000000020F7B50646224882B00079174681
:1045B000002833D01F4C203CA07A00282ED0206841
:1045C0006A46807A0221FEF723FC002826D168463D
:1045D000008845BAB54202D2002038701EE06068FB
:1045E00040884008A84211D220686A46407C0121D8
:1045F000FEF70EFC002811D168460078C00605D5EC
:1046000000F044F80120C04305B0F0BD2068F1B2CD
:10461000C07A039AFEF7FCFB002802D00020C043BA
:10462000F2E731462846FBF7AEFE401E3870002008
:10463000EAE7000020000020F8B5124F16000D46F2
:104640001DD0114CA17A002919D0020A69460A70BE
:10465000C0B2487061684019498988420FD8206803
:104660006A46007E0221FEF73BFC002807D1206845
:10467000E9B2407D3246FEF7CBFB002800D0384639
:10468000F8BD0000FFFFFFFF00000020F8B54D4C13
:104690000026A07AF643002872D0002568460570EF
:1046A00020686A46C07B0121FEF71AFC002867D10A
:1046B00020686A4640790121FEF712FC00287FD16C
:1046C00020686A4600790121FEF70AFC002877D1AC
:1046D000204620300079002835D00C20694608702B
:1046E00020686A4600790121FEF7FAFB002867D1AD
:1046F0003220FDF7E5FAC02069460870A07AC007AD
:1047000001D0E020087020680A4600790121FEF7F8
:10471000E7FB002854D1607C002803D002206946C2
:10472000087001E06846057020686A46C07B012178
:10473000FEF7D6FB002843D16846057020686A461C
:104740004079012138E004206946087020686A46F3
:1047500000790121FEF7C4FB002831D1A07C00289C
:104760000FD1A07AC0070CD060206946087020687D
:104770006A4600790121FEF7B3FB002820D102E050
:104780001EE04020F1E73220FDF79AFA607C002815
:1047900003D001206946087001E068460570206872
:1047A0006A46C07B0121FEF79BFB002808D12068E8
:1047B000044A407910320121FEF792FB002800D014
:1047C0003046F8BD0000002038B5174C0025A17A0E
:1047D000ED43002921D0022806D0042806D008285D
:1047E0000DD0102819D10CE0002000E00820694607
:1047F00008700978607AC908884204D005E0102062
:10480000F5E71820F3E7002038BD20686A46C07934
:104810000121FEF765FB002801D0284638BD684617
:104820000078C0086072EEE700000020F8B5314C57
:104830000646A07CB04201D10020F8BD2D4DDF27F7
:10484000286820350079002E6A4624D00121FEF721
:10485000DFFA002837D1694608786A463840087080
:10486000206801210079FEF73BFB00282BD10320B3
:10487000FDF726FA022069460870A87800282ED095
:1048800082202BE020680A46007D0121FEF728FBEC
:10489000002818D12CE00121FEF7BAFA002812D125
:1048A000A07A6946C007087803D0202108436946EA
:1048B00000E03840087020680A4600790121FEF7C0
:1048C0000FFB002802D00020C043F8BD0320FDF7F5
:1048D000F7F9A878002800D0802069460870E878A9
:1048E0000028CFD008783021084369460870C9E70E
:1048F000A674A1E700000020F8B51A4C2179814286
:104900001DD026460025203E00281DD060790028B5
:1049100017D0002000F090F90020FFF787FFF08CFF
:1049200000F0BEF8684605706A4601212320FEF7B4
:10493000D7FA0120207100F07FF9FFF7A7FE0020D1
:10494000F8BD0020C043F8BD002000F075F9307CB0
:10495000694608706A4601212320FEF7C1FA2571D5
:10496000EBE700002000002038B5194C0025A17AA3
:10497000ED43002924D0FA280BD0FF38F5380AD0AF
:10498000FF38F53810D07D21C900884218D1182091
:1049900002E0002000E00820694608700978207ACB
:1049A000C908884202D003E01020F5E7002038BD96
:1049B00020686A4680790121FEF792FA002801D02A
:1049C000284638BD68460078C0082072EEE700002F
:1049D0000000002038B5174C0546E078A84201D108
:1049E000002038BD002D01D0302000E000206946B5
:1049F000087010482038817C002905D06A4611785B
:104A0000022211436A461170A178002905D06A4636
:104A10001178802211436A46117000686A46007D51
:104A20000121FEF75DFA002802D00020C04338BD06
:104A3000E570D5E72000002038B5184C0025A17A94
:104A4000ED43002924D0BC2801D3012010E06228C6
:104A500001D302200CE02A2801D3032008E0142807
:104A600001D3042004E00A2801D3052000E0062039
:104A700069460870E07A0978884201D1002038BD83
:104A800020686A4680780121FEF72AFA002801D0C2
:104A9000284638BD68460078E072EFE70000002045
:104AA000F8B5224D0446A87A0027FF4300282ED0EF
:104AB000284620300079002829D1287D7D26F6005F
:104AC00000280AD0002C0CD0282C03D8E0B2FFF725
:104AD00019FD28E00020FFF715FD042C05D2042461
:104AE00006E00020FFF70EFDF9E7B44200D9344696
:104AF00021463046FBF747FC6946401E087028688F
:104B00006A4640780121FEF7EBF9002801D03846CB
:104B1000F8BD684601783046491CFBF734FCE88153
:104B20004008FFF789FF0020F8BD000000000020CA
:104B3000F8B504464006400F01270026002802D0A1
:104B40006846077007E0002C02D06846067002E055
:104B5000402069460870224D6A4628680121807C01
:104B6000FEF7BEF9002829D168460078BF21084029
:104B7000287368460670600602D4042069460870EF
:104B8000A00605D4694608780221084369460870E2
:104B9000E00603D46946087838430870200705D436
:104BA00069460878382108436946087028686A46CB
:104BB000C07C0121FEF794F9002803D00020AE72DA
:104BC000C043F8BD002C04D0082C02D00020FFF711
:104BD00001FFAC722E753220FDF772F80020F8BD8F
:104BE00000000020F8B5124F16000D461DD0114CE4
:104BF000A17A002919D0020A69460A70C0B2487029
:104C000061684019498988420FD820686A46007E49
:104C10000221FEF765F9002807D12068E9B2407D3E
:104C20003246FEF75DF9002800D03846F8BD000096
:104C3000FFFFFFFF0000002038B5164900220C4698
:104C40000B79203C551E2168002B0BD0002812D078
:104C5000022014E0C87B6A460121FEF741F90028D2
:104C600010D111E0A37A002B0CD0002803D0607C77
:104C700000280CD102E068460270EBE701206A468A
:104C80001070E7E7284638BD684600786074002059
:104C900038BD000020000020F8B506460C46FCF7A1
:104CA00047FB051E0F4600D00120014349000B4879
:104CB0004908411AC90F0DD0002E01D0012100E092
:104CC00000210C4361004908401AC00F02D10120A5
:104CD000FCF7ABFA28463946F8BD00000000F07F2B
:104CE00070B501250C002D051C4310D4EC4206D4F0
:104CF000AC420AD4994200D070BD904270BDE942E6
:104D000017D4EB4215D4994270BD894270BDEC4274
:104D100006D5AC42F9D58B4200D070BD824270BD41
:104D20006D004C00EC4204D25C00EC4201D28B429C
:104D300070BD034C30B4FCF7B3FA30BC70BD00BF9B
:104D40001900120470B501250400ED074C4020D471
:104D5000441A01D2001B0919C60D4B00F2B2FF2AFA
:104D600029D01B0E2CD000020C02D31A2C43DC409D
:104D70002843051910D2280A02D3401C6D0611D011
:104D8000761EF6058019FF2A00DA70BDC00DC00539
:104D900070BD694000F07AF801200543C541521CFE
:104DA000761CE8E764089C40C90161408900E7D1AE
:104DB0000124A043E4E71B0E440200D0034870BD69
:104DC000002AFCD1C00FC00770BD00BF0000C07F2B
:104DD00070B5420064414B005C41120E39D01B0E8D
:104DE00038D0FF2A3CD0FF2B3AD040024902400A7B
:104DF000490A060045184E43000A090AD2184843DA
:104E0000ED017F3A0104731A4019190C4318990FE8
:104E100004D001215B0849075B1A521CD80904D34E
:104E2000401CF50301D19D0607D0FF2A08D2D50505
:104E300006D0E4072043401970BD0125A843F4E7DC
:104E4000002A01DCE00770BD2402FF202043C005DA
:104E500070BD1B0EFF2A03D0FF2B01D0E00770BDF1
:104E6000FF2645003606B54206D84D00B54203D8A8
:104E7000D218FF2A00D0E7E7004870BD0000C07FCD
:104E800070B501250400ED074C4022D4441A02D22B
:104E90006C40001B0919C60D4B00F2B2FF2A4BD023
:104EA0001B0E50D000020C02D31A2C43DC40A84346
:104EB000051B05D5AD0019D36D08761E521E37D0DF
:104EC000F605280A01D2801970BD70416D0603D025
:104ED00070BD6940FFF73CFF9C40090261404900FA
:104EE00001D0401E70BD0124A04370BD6D081DD0CF
:104EF00001202B0C01D12D0410302B0E01D12D02DD
:104F000008302B0F01D12D01001DAB0F01D1AD00D9
:104F1000801CEB0F01D16D00401C6D00361A121A77
:104F2000680AF5054019012A02DB70BD002070BD3A
:104F3000C036300AC00770BD1B0E440201D1FF2BE2
:104F400000D1024870BD002AF0D070BD0000C07FC3
:104F500075191A0C6A231B1C1F207274433B4138BD
:104F6000393A6B6C376F06246D6E7000D000000408
:104F700076005401F7FD00018300000000080000E6
:104F80000001001832000500000020410000D2425C
:104F9000295C0F3E9A99993E3333733F295C0F3E4B
:104FA0000000700000000024000000020003000068
:104FB00000650054FFEF0000FA80000B1282000130
:104FC000030C30C30E8C8CE914D5400213710F8E84
:104FD0003883F8833000F883258EF8833000F88317
:104FE000FFFFFFFF0FFEA9D6240004001A8279A15B
:104FF0000000003CFFFF00000010000038836FA29B
:10500000003E03304000000002CAE3093E80000079
:1050100020000000000000004000000060000000D0
:10502000000C0000000C186E000006920A16C0DF8B
:10503000FFFF0256FD8CD377FFE1C496E0C5BEAA00
:1050400000000000FFFF0B2B000016570000035963
:105050004000000000001DFA00026C1D000000006E
:105060003FFFDFEB003EB3B6000D227800002F3C7F
:1050700000000000001942B5000039A20000B3652D
:10508000D90E9FC91DCF4C343000000050000000E5
:105090003BB67AE80064000000C800000000000091
:1050A000100000001000FA921000225E000D229FF6
:1050B0000001000000320000FF46000063D4000041
:1050C0001000000004D6000004CC000004CC000056
:1050D000000010720000004000000000000000000E
:1050E0000006000200050007000000000064000048
:1050F0000000000000000005000500640020000022
:10510000000000000000000000004000000003005C
:1051100000000032F8980000FF650000830F0000D7
:10512000FF9BFC00000000000000000000000000E9
:10513000000000000000000000000000000000006F
:10514000000000000000000000000000000010004F
:1051500040000000000000060000B26A00020000EB
:105160000001FB830068000000D9FC007CF1FF8394
:105170000000000000650000006403E800640028EF
:10518000000000250000000016A000000000100034
:1051900000001000002F0000000001F400001000CB
:1051A00000280000FFFF4581FFFFFA7200000000A9
:1051B00000000000004400050005BAC6004778A2C0
:1051C00000000001000000000000060000000014C4
:1051D0000000254D002F706D000005AE000C02D0C0
:1051E00000000000000000000000000000000000BF
:1051F000001B000000000000000000000000000094
:105200000064000000080000000000000000000032
:10521000000000000000000000000000000000008E
:10522000000000000000000000000000000000007E
:10523000000000000000000000000000000000006E
:10524000000000000000000000000000000000005E
:10525000000000000000000000000000000000004E
:10526000001B00000000000000000000000E000E07
:1052700000000AC70004000000000032FFFFFF9C8E
:1052800000000B2B00000002000000010000006481
:10529000FFE500000000000000000000000000002A
:1052A00000000001000000000001000000000000FC
:1052B000000180000001800000018000002426D34E
:1052C0000000000000000000000600100096003CF6
:1052D00000000000000000000000000000000000CE
:1052E0000C0A4E68CDCF770950166759C619CE8281
:1052F00000000000000000000000000000000000AE
:10530000000000000000000017D784000300000028
:105310000000000000000000C7938F9D1E1B1C1999
:10532000000000000000000000000000000000007D
:10533000000000000000000002031885000040008B
:105340000000000300000003000000000000000057
:10535000400000000000000000000000000000000D
:10536000000000000000000000000000000000003D
:10537000000000000000000000000000000000002D
:1053800000000000677DDF7E72902E554CF6E688A7
:10539000000000000000000000000000000000000D
:1053A000D8DCB4B8B0D8B9ABF3F8FAB3B7BB8E9EBB
:1053B000AEF132F51BF1B4B8B08097F1A9DFDFDFB1
:1053C000AADFDFDFF2AAC5CDC7A90CC92C97F1A9C6
:1053D00089264666B28999A92D557DB0B08AA896CE
:1053E000365676F1BAA3B4B280C0B8A89711B2838A
:1053F00098BAA3F0240844106418B2B9B49883F1A1
:10540000A329557DBAB5B1A38393F0002850F5B216
:10541000B6AA839328547CF1B9A3829361BAA2DA25
:10542000DEDFDB819AB9AEF5606870F1DABAA2DF2F
:10543000D9BAA2FAB9A38292DB31BAA2D9BAA2F838
:10544000DF85A4D0C1BBAD83C2C5C7B8A2DFDFDF93
:10545000BAA0DFDFDFD8D8F1B8AAB38DB4980D3584
:105460005DB2B6BAAF8C96198F9FA70E161EB49A6E
:10547000B8AA872C547CBAA4B08AB691325676B2B8
:105480008494A4C808CDD8B8B4B0F19982A82D5599
:105490007D98A80E161EA22C547C92A4F02C507855
:1054A000F184A898C4CDFCD80DDBA8FC2DF3D9BAA3
:1054B000A6F8DABAA6DED8BAB2B68696A6D0F3C8EF
:1054C00041DAA6C8F8D8B0B4B882A892F52C5488AE
:1054D00098F135D9F418D8F1A2D0F8F9A884D9C731
:1054E000DFF8F883C5DADF69DF83C1D8F40114F18E
:1054F000A8824EA884F311D182F5D992289788F119
:1055000009F41C1CD884A8F3C0F9D1D99782F129D9
:10551000F40DD8F3F9F9D1D982F4C203D8DEDF1A39
:10552000D8F1A2FAF9A88498D9C7DFF8F8F883C7A8
:10553000DADF69DFF883C3D8F40114F198A8822E6A
:10554000A884F311D182F5D992509788F109F41CFF
:10555000D884A8F3C0F8F9D1D99782F149F40DD8CD
:10556000F3F9F9D1D982F4C403D8DEDFD8F1AD88DC
:1055700098CCA809F9D98292A8F57CF1883ACF9401
:105580004A6E98DB6931DAADF2DEF9D88795A8F278
:1055900021D1DAA5F9F417D9F1AE8ED0C0C3AE820D
:1055A000C684C3A88595C8A588F2C0F1F4010EF1A0
:1055B0008E9EA8C63E56F554F18872F40115F198F6
:1055C00045856EF58E9E0488F142985A8E9E068817
:1055D00069F4011CF1981E1108D0F504F11E970220
:1055E00002983625DBF9D985A5F3C1DA85A5F3DF65
:1055F000D88595A8F309DAA5FAD88292A8F578F1AA
:10560000881A849F26889821DAF41DF3D8879F3959
:10561000D1AFD9DFDFFBF9F40CF3D8FAD0F8DAF91F
:10562000F9D0DFD9F9D8F40BD8F3879F39D1AFD9A6
:10563000DFDFF41DF3D8FAFCA869F9F9AFD0DADEA0
:10564000FAD9F88F9FA8F1CCF398DB45D9AFDFD01A
:10565000F8D8F18F9FA8CAF38809DAAF8FCBF8D8B2
:10566000F2AD978D0CD9A5DFF9BAA6F3FAF412F2D0
:10567000D8950DD1D9BAA6F3FADAA5F2C1BAA6F334
:10568000DFD8F1BAB2B68696A6D0CAF349DAA6CB6D
:10569000F8D8B0B4B8D8AD84F2C0DFF18FCBC3A8CE
:1056A000B2B68696C8C1CBC3F3B0B48898A821DB44
:1056B000718D9D71859521D9ADF2FAD88597A8286D
:1056C000D9F408D8F28D29DAF405D9F285A4C2F20A
:1056D000D8A88D9401D1D9F411F2D88721D8F40A31
:1056E000D8F28498A8C801D1D9F411D8F3A4C8BBC2
:1056F000AFD0F2DEF8F8F8F8F8F8F8F8D8F1B8F624
:10570000B5B9B08A95A3DE3CA3D9F8D85CA3D9F883
:10571000D87CA3D9F8D8F8F9D1A5D9DFDAFAD8B16D
:105720008530F7D9DED8F830ADDADED8F2B48C990E
:10573000A32D557DA083DFDFDFB591A0F629D9FB2E
:10574000D8A0FC29D9FAD8A0D051D9F8D8FC51D981
:10575000F9D879D9FBD8A0D0FC79D9FAD8A1F9F930
:10576000F9F9F9A0DADFDFDFD8A1F8F8F8F8F8AC3A
:10577000DEF8ADDE8393AC2C547CF1A8DFDFDFF6DE
:105780009D2CDAA0DFD9FADB2DF8D8A850DAA0D00A
:10579000DED9D0F8F8F8DB55F8D8A878DAA0D0DF51
:1057A000D9D0FAF8F8F8F8DB7DF8D89CA88CF53059
:1057B000DB38D9D0DEDFA0D0DEDFD8A848DB58D96F
:1057C000DFD0DEA0DFD0DED8A868DB70D9DFDFA0B5
:1057D000DFDFD8F1A888902C547C98A8D05C38D111
:1057E000DAF2AE8CDFF9D8B087A8C1C1B188A8C6FB
:1057F000F9F9DA36D8A8F9DA36D8A8F9DA36D8A815
:10580000F9DA36D8A8F9DA36D8F78D9DADF818DA76
:10581000F2AEDFD8F7ADFA30D9A4DEF9D8F2AEDEB9
:10582000FAF983A7D9C3C5C7F1889BA77AADF7DE7C
:10583000DFA4F8849408A797F300AEF29819A4881F
:10584000C6A39488F632DFF28393DB09D9F2AADF8C
:10585000D8D8AEF8F9D1DAF3A4DEA7F1889B7AD8CC
:10586000F38494AE19F9DAAAF1DFD8A881C0C3C5D0
:10587000C7A39283F628ADDED9F8D8A350ADD9F8E6
:10588000D8A378ADD9F8D8F8F9D1A1DADEC3C5C765
:10589000D8A18194F818F2B089ACC3C5C7F1D8B8C3
:1058A000B4B09786A8319B069907AB9728889BF0E0
:1058B0000C201440B0B4B8F0A88A9A285078B79B4E
:1058C000A8295179247059446938644831F1BBAB37
:1058D00088002C547CF0B38BB8A804285078F1B021
:1058E00088B49726A85998BBABB38B02264666B0FE
:1058F000B8F08A9CA82951798B2951798A2470594A
:105900008B2058718A4469388B3940688A644831E1
:105910008B30496088F1AC002C547CF08CA80428B2
:105920005078F1889726A85998AC8C02264666F0E4
:10593000899CA8295179247059446938644831A94F
:105940008809205970AB11384069A8193148608C1A
:10595000A83C415C207C00F187981986A86E767E71
:10596000A999882D557DD8B1B5B9A3DFDFDFAED0B9
:10597000DFAAD0DEF2ABF8F9D9B087C4AAF1DFDF35
:10598000BBAFDFDFB9D8B1F1A3978E60DFB084F28F
:10599000C8F8F9D9DED89385F14AB183A308B58355
:1059A0009A0810B79F10D8F1B0BAAEB08AC2B2B69A
:1059B0008E9EF1FBD9F41DD8F9D90CF1D8F8F8ADC9
:1059C00061D9AEFBD8F40CF1D8F8F8AD19D9AEFB1B
:1059D000DFD8F416F1D8F8AD8D61D9F4F4ACF59CAC
:1059E0009C8DDF2BBAB6AEFAF8F40BD8F1AED0F836
:1059F000AD51DAAEFAF8F1D8B9B1B6A3839C08B9C3
:105A0000B1839AB5AAC0FD3083B79F10B58B93F2CE
:105A10000202D1ABDADED8F1B080BAABC0C3B28437
:105A2000C1C3D8B1B9F38BA391B609B4D9ABDEB079
:105A3000879CB9A3DDF1B38B8B8B8B8BB087A3A332
:105A4000A3A3B28BB69BF2A3A3A3A3A3A3A3A3A3D5
:105A5000A3F1B087B59AA3F39BA3A3DCBAACDFB9DB
:105A6000A3A3A3A3A3A3A3A3A3A3A3A3A3A3A3A306
:105A7000D8D8D8BBB3B7F1AAF9DAFFD9809AAA2847
:105A8000B48098A720B79787A86688F07951F190DD
:105A90002C870CA781976293F0717160859401291E
:105AA000517990A5F1284C6C870C95188578A383C3
:105AB00090284C6C886CD8F3A28200F210A892193E
:105AC00080A2F2D926D8F188A84DD948D896A8390D
:105AD00080D93CD89580A839A68698D92CDA87A792
