:020000040800F2
:10000000D0060020650100087911000819110008C8
:1000100000000000000000000000000000000000E0
:100020000000000000000000000000007D1100083A
:1000300000000000000000007B1100087F11000894
:100040009501000895010008950100089501000838
:100050009501000895010008950100089501000828
:100060009501000895010008950100089501000818
:100070009501000895010008950100089501000808
:100080009501000800000000000000009501000834
:100090000000000095010008950100089501000886
:1000A0000000000095010008950100089501000876
:1000B0009501000800000000950100089501000866
:1000C00000F002F800F03EF80CA030C80838241800
:1000D0002D18A246671EAB4654465D46AC4201D180
:1000E00000F030F87E460F3E0FCCB6460126334274
:1000F00000D0FB1AA246AB4633431847CC11000090
:10010000EC110000103A02D378C878C1FAD852072F
:1001100001D330C830C101D504680C6070470000BD
:100120000023002400250026103A01D378C1FBD813
:10013000520700D330C100D50B6070471FB51FBDFB
:1001400010B510BD00F099F91146FFF7F7FF01F067
:100150007DF800F0B1F903B4FFF7F2FF03BC00F043
:10016000B7F900000F4880F308880F480168090EAE
:100170000E4A914205D10E480E4901600E480F49C2
:1001800001600F4880470F480047FEE7FEE7FEE7A3
:10019000FEE7FEE7FEE700000B480C490C4A0D4B5A
:1001A00070470000D0060020040000001F0000007F
:1001B0001810024001000000000001400000000093
:1001C000D5110008C1000008D0000020D006002092
:1001D000D0020020D0020020FEB5054610460C4695
:1001E000184373D0AE468C460020AD1A01469C41A0
:1001F00067D36646002701243D46B61A9D4102D3C7
:1002000013463A462124654676462F04360C3E4373
:100210002D0CB61A9D4104D3150C1B042B4312045C
:100220001034654676462F06360A3E432D0AB61A26
:100230009D4104D3150E1B022B4312020834654660
:1002400076462F0736093E432D09B61A9D4104D341
:10025000150F1B012B431201241D65467646AF077F
:10026000B6083E43AD08B61A9D4104D3950F9B00D6
:100270002B439200A41C65467646EF0776083E4362
:100280006D08B61A9D411AD392185B41641C16E0A2
:100290000018764665464941B71A9D410191009084
:1002A00009D36046B11A98418E4684460098019958
:1002B0000025401C6941DD0752082A435B08641E83
:1002C000E6D57246634603B0F0BDFFE70020014665
:1002D000C046C0462A462346F5E701E004C0091F90
:1002E0000429FBD28B0701D50280801CC90700D0EE
:1002F0000270704700290BD0C30702D00270401C67
:10030000491E022904D3830702D50280801C891E5E
:10031000E3E70022EEE70022DFE7002203098B4239
:100320002CD3030A8B4211D300239C464EE0034694
:100330000B433CD4002243088B4231D303098B4248
:100340001CD3030A8B4201D394463FE0C3098B427E
:1003500001D3CB01C01A524183098B4201D38B01D7
:10036000C01A524143098B4201D34B01C01A52417A
:1003700003098B4201D30B01C01A5241C3088B42BF
:1003800001D3CB00C01A524183088B4201D38B00AA
:10039000C01A524143088B4201D34B00C01A52414C
:1003A000411A00D201465241104670475DE0CA0F23
:1003B00000D04942031000D34042534000229C46E3
:1003C00003098B422DD3030A8B4212D3FC228901ED
:1003D00012BA030A8B420CD3890192118B4208D3C3
:1003E000890192118B4204D389013AD0921100E025
:1003F0008909C3098B4201D3CB01C01A5241830939
:100400008B4201D38B01C01A524143098B4201D365
:100410004B01C01A524103098B4201D30B01C01A90
:100420005241C3088B4201D3CB00C01A524183080A
:100430008B4201D38B00C01A5241D9D243088B4260
:1004400001D34B00C01A5241411A00D20146634603
:1004500052415B10104601D34042002B00D5494267
:10046000704763465B1000D3404201B50020C04690
:10047000C04602BD704770477047754600F024F8CB
:10048000AE46050069465346C008C000854618B010
:1004900020B5FFF781FE60BC00274908B64600265C
:1004A000C0C5C0C5C0C5C0C5C0C5C0C5C0C5C0C524
:1004B000403D49008D46704710B50446C046C046D1
:1004C0002046FFF748FE10BD004870476C00002032
:1004D00001491820ABBEFEE726000200704700006D
:1004E0001CB5694608700948002181600160C1603F
:1004F00001210161014601AB6A46054800F01FF881
:10050000002801D072B6FEE71CBD000010000020DC
:100510004400002072B6FEE72022125C012A08D0B7
:10052000022A06D0416A012292041143416201204D
:100530007047006842690A43426100207047F0B585
:100540002024255C0468A468012D05D0022D03D069
:10055000416A012292045BE02501AD0F01D1E50063
:1005600053D5A401A40F022C03D9416A0122D2055C
:100570004EE001252E46A6401E608B68002B14D04D
:10058000CE6833434E68F60033432601FF360768D2
:100590008136BB5123011C46FF3407680E69853440
:1005A0003E51097D012904D009E00B88CE685B0526
:1005B000EAE701680E59FF2701373E430E51D4790F
:1005C0001179240621439479567924043602344360
:1005D00021431C46FF3406688D343151D47811789C
:1005E00024062143947852782404120214432143B0
:1005F0001A46FF3204688932A1500068FF33813304
:10060000C1582943C1500020F0BD416A0122520562
:10061000114341620120F0BD30B52022125C036815
:10062000012A08D0022A06D0416A0122920411430D
:100630004162012030BDDA1DFF32FA321468012018
:10064000044314600C7DE406E40EA040D4698443A6
:10065000D461CC69002C1AD1D4688443D4608C89CD
:100660008D882404ADB22C434D69ED00ED18FF35A3
:10067000FF3502352C640C890D882404ADB22C435F
:100680004D69ED00ED18FF35FF3502356C64CC691E
:10069000012C1AD1D4680443D4600C888D882404BA
:1006A000ADB22C434D69ED00ED18FF35FF35023535
:1006B0002C640C898D892404ADB22C434D69ED0066
:1006C000EB18FF33FF3302335C648B69002B5368F4
:1006D0000BD0034353600B69002B536907D00343CE
:1006E0005361096A012904D006E08343F2E783439A
:1006F000F6E7D1690143D1611068400840001060FD
:10070000002030BDF8B5040005D0254620352878F6
:10071000002802D004E00120F8BD204600F07AF85D
:100720002068016801221143016000F0AFF9012740
:1007300006467F0404E000F0A9F9801B0A2811D8BE
:1007400020684068C007F6D0206801680222914303
:10075000016000F09BF906460AE000F097F9801B63
:100760000A2805D9606A3843606205202870D2E7FC
:10077000206840688007F0D4217E8020012921680C
:100780000A683BD082430A60617E402001292168CB
:100790000A6835D082430A60A17E202001292168A1
:1007A0000A682FD082430A60E07E10210128206869
:1007B000026829D00A430260207F082101282068AE
:1007C000026823D08A430260617F042001292168E6
:1007D0000A681DD082430A60E168A0686269084324
:1007E0002169114308436168491E08432168C861B3
:1007F00000206062012028700020F8BD0243C2E79B
:100800000243C8E70243CEE78A43D4E70A43DAE764
:100810000243E0E710B586B0044614216846FFF7AE
:100820007AFD1349206888421FD11248C26901210C
:1008300049060A43C261C2690A4005924269091227
:100840000A4342614069084005900320C0020090BD
:1008500002200190002002900320039004200490C5
:1008600009206946C00600F045F806B010BD00003A
:10087000006400400010024070B505460446203573
:100880002878012805D0606A0121C9040843606204
:1008900016E00220287020680168490849000160BC
:1008A00000F0F4F806460DE000F0F0F8801B0A288E
:1008B00008D9606A01214904084360620520287054
:1008C000012070BD20684068C007EDD1606270BD36
:1008D00070B5044600F0DAF80546601C02D0044802
:1008E0000078241800F0D2F8401BA042FAD370BD63
:1008F00000000020F8B5002303240125B5E02E46B2
:100900009E40B44632407CD00E79B607B60F012E19
:1009100001D0022E17D186682746B6465E00B74042
:1009200000967646BE43B646CF68009EB7407646F0
:100930003743876046686746BE430F79FF06FF0F5F
:100940009F40374347600E79F643B6070ED0C6681E
:100950002746B4465E00B646B7406646BE43B44638
:100960008F687646B74066463743C7600E79B6074C
:10097000B60F022E14D1DE08B60036180096366A7D
:100980005F07B446FE0E0F27B646B7406646BE4325
:10099000B4460F697646B74066463743009E3762D5
:1009A00006682746B4465E00B646B7406646BE4374
:1009B0000F79B446BF07BF0F7646B7406646374348
:1009C00007604E68B603B60F4ED02B4FBE692E435C
:1009D000BE61BE699F08F607F60F284EBF00BE191C
:1009E0000096B6680F27B4469E07360FB646B74046
:1009F0006646BE430927FF06B446B84202D1002727
:100A00000BE031E01E4FB84201D1012705E01D4F38
:100A1000B84201D1022700E005277646B740664676
:100A20003743009EB760184E36684F689643FF0301
:100A300000D51643144F3E607E684F689643BF034F
:100A400000D51643104F7E60BE684F689643FF0284
:100A500000D516430C4FBE60FE684F689643BF0238
:100A600000D51643084AD6605B1C0A681646DE406D
:100A700000D044E7F8BD0000001002400000014033
:100A80000004004800080048000401400148806854
:100A90007047000000000020024881680278891831
:100AA000816070470000002010B5064801681022E0
:100AB00011430160032000F007F800F027F8002040
:100AC00010BD00000020024070B504460D4D7D2091
:100AD0002978C000FFF721FC01460B480068FFF7AA
:100AE0001CFC00F001FB002809D1042C07D20022D5
:100AF0002146401E00F01EF800206C6070BD0120F1
:100B000070BD0000000000200C00002008B508485F
:100B10008169012211438161816911400091C2699B
:100B200001040A43C261C0690840009008BD00008A
:100B30000010024010B500F067FB10BDF8B50F467D
:100B400006005FD03D4D2868C007C00FB84209D2EB
:100B5000286840084000384328602868C007C00F54
:100B6000B8424FD13068364C81070CD5400704D5C8
:100B7000606807210902084360606068F0218843CB
:100B8000B168084360603078C0072CD070680128D5
:100B900010D0022811D0032812D02168890700291B
:100BA00030DA61688908890001436160FFF76EFFF0
:100BB000009011E021688903F1E721688901EEE7DF
:100BC000616BC903EBE7FFF761FF0099411A1D480C
:100BD000814201D90320F8BD60680C21084071688A
:100BE00089008842EFD12868C007C00FB8420BD9EE
:100BF000286840084000384328602868C007C00FB4
:100C0000B84201D00120F8BD3078400706D56068B1
:100C1000072109028843F1680843606000F018F872
:100C20006168094A0906090F515CC8400749086014
:100C30000320FFF749FF0020F8BD0000002002401C
:100C40000010024088130000B81200080C000020B9
:100C500030B519A30FCB89B06C460FC41AA30FCBC4
:100C60000FC41D4A51680C200B4603401B48042B3F
:100C700005D01B4D082B04D00C2B00D1284609B001
:100C800030BD8B021B0F6C46E45CD26A04AB1207CA
:100C9000120FC9039A5C890F022901D0032901D0E0
:100CA000002301E0002328460021FFF795FA2146A2
:100CB00000F091FAE3E700000203040506070809C3
:100CC0000A0B0C0D0E0F1010010203040506070895
:100CD000090A0B0C0D0E0F100010024000127A00D2
:100CE000006CDC02FEB5040070D02078F94EFA4D9D
:100CF000C00748D068680007800F01281FD06868C7
:100D00000007800F022804D16868C003800F022802
:100D100015D06168012919D001208004002901D073
:100D2000052917D02968B1432960296881432960C2
:100D3000606800281BD0FFF7A9FE074613E028686B
:100D4000800320D560680028CED01CE0286830439E
:100D50002860EDE7296801432960F7E7FFF796FE71
:100D6000C01B642870D828688003F7D50BE0FFF714
:100D70008DFE074604E0FFF789FEC01B6428F1D80A
:100D800028688003F7D4207880073FD5686800077B
:100D9000800F14D068680007800F022804D16868AB
:100DA000C003800F01280AD0E068002828681ED000
:100DB000012108432860FFF769FE07460CE0286818
:100DC00080070CD5E068012800D108E080E1FFF73A
:100DD0005DFEC01B0228C5D828688007F7D52868A3
:100DE000F82188432169C900084328600EE04008C3
:100DF00040002860FFF74AFE074604E0FFF746FE82
:100E0000C01B0228AED828688007F7D420780007D6
:100E100023D5E0690028686A0FD001210843686281
:100E2000FFF734FE074604E0FFF730FEC01B022840
:100E300098D8686A8007F7D50FE0400840006862DC
:100E4000FFF724FE074605E0C3E0FFF71FFEC01BC7
:100E5000022887D8686A8007F7D4207804274007DB
:100E6000002861DA00200190E869C00008D4E9692F
:100E7000B8060143E961E969014001200091019050
:100E800096480168C90511D40168821511430160B3
:100E9000FFF7FCFD009005E0FFF7F8FD0099401A10
:100EA000642898D88D480068C005F5D5A068012849
:100EB0000AD0002801D0052811D0286A4008400037
:100EC0002862286AB84302E0286A012108432862A0
:100ED000A068002812D0FFF7D9FD00900AE0286A28
:100EE00038432862F0E7FFF7D1FD0099411A7C48AA
:100EF00081426ED8286A8007F5D50DE0FFF7C6FD60
:100F0000009006E0FFF7C2FD0099411A7448814243
:100F10005FD8286A8007F5D40198002804D0E969D1
:100F2000012000078143E9612078C00635D560695A
:100F300001280CD0401D686B24D038436863686B6F
:100F4000400840006863FFF7A1FD074622E0686B98
:100F500038436863686B012108436863FFF796FDB7
:100F6000074604E0FFF792FDC01B022831D8686BEA
:100F70008007F7D5686BF8218843A169C900084349
:100F800068630AE0B8436863F4E7FFF77FFDC01BBE
:100F900002281ED8686B8007F7D42078800637D5E2
:100FA00068680007800F032814D068680007800F66
:100FB000022804D16868C003800F03280AD0206A81
:100FC0000028686B16D030436863FFF75FFD064664
:100FD0000CE062E0686BC0031AD5206A012877D163
:100FE00016E0FFF753FD801B022856D8686BC0033C
:100FF000F7D50DE0B0436863FFF748FD064604E00F
:10100000FFF744FD801B022847D8686BC003F7D464
:10101000606A002866D069680907890F022942D0F2
:10102000012636060228286805D0B0432860FFF75D
:101030002DFD044633E0B0432860FFF727FD074647
:1010400004E0FFF723FDC01B022826D82868800192
:10105000F7D4E86A216B000900010843E862A16A3D
:10106000E06A084369687B22D203914308436860C1
:10107000286830432860FFF709FD044604E0FFF7C5
:1010800005FD001B022808D828688001F7D529E053
:10109000FFF7FCFC001B022801D90320FEBD2868D5
:1010A0008001F5D41EE00128F8D06868E96A0322BF
:1010B000D203A36A02409A420AD10907226B090FA0
:1010C000914205D10F2189040840E16A884209D084
:1010D0000120FEBD00000100001002400070004031
:1010E000881300000020F4E7094910B5401E88422B
:1010F00001D9012010BD074C60610321081F00F0D9
:1011000083F80020A06107202061002010BD0000AE
:10111000FFFFFF0000E000E0FEE7000010B50E4812
:101120000C49016008214160002105228160120400
:1011300002610122C16092054261017641768176A9
:10114000C17601774177FFF7DDFA002801D0FFF77C
:10115000E1F910BD006400404400002008B50548D6
:101160004269012149040A434261406908400090F4
:1011700008BD000000100240FEE77047704710B540
:10118000FFF78AFC10BD10B592B034216846FFF716
:10119000C2F800240F94202000900D9401200E949A
:1011A0000890109409946846FFF79CFD002801D030
:1011B00072B6FEE707200D9003200E900F940121D8
:1011C00010940DA8FFF7BAFC002801D072B6FEE714
:1011D00012B010BD7047F8B5040C8BB2264682B22F
:1011E0005E430D0C1046370C58433604801900211D
:1011F000794116466E43370C3604801979412646EC
:101200006E438919F8BD00008307FF22DB0E9A4068
:101210008907090E9940002808DB830809489B00CC
:101220001B18186890430843186070470007000FA8
:101230000838830804489B001B18D869904308436A
:10124000D861704700E400E000ED00E08AB0FFF7ED
:101250002BFCFFF798FFFFF781FFFFF75FFF0021EF
:101260000120029103910591069104910091019151
:1012700007900991089069460E48FFF7CDF90028BC
:1012800001D072B6FEE70B48FFF7F6FA002801D04E
:1012900072B6FEE702210748FFF73EF9002801D0A9
:1012A00072B6FEE70220FFF71BF96420FFF710FB80
:1012B000F8E70000440000200000000000000000EB
:1012C0000102030406070809E812000800000020D4
:1012D0001000000004010008F812000810000020AF
:1012E000C00600002001000801000000040000000A
:0812F0000000000000127A006A
:04000005080000C12E
:00000001FF
